{
  "contractName": "GOLD",
  "abi": [
    {
      "anonymous": false,
      "inputs": [
        {
          "indexed": true,
          "internalType": "address",
          "name": "owner",
          "type": "address"
        },
        {
          "indexed": true,
          "internalType": "address",
          "name": "spender",
          "type": "address"
        },
        {
          "indexed": false,
          "internalType": "uint256",
          "name": "value",
          "type": "uint256"
        }
      ],
      "name": "Approval",
      "type": "event"
    },
    {
      "anonymous": false,
      "inputs": [
        {
          "indexed": false,
          "internalType": "string",
          "name": "text",
          "type": "string"
        },
        {
          "indexed": false,
          "internalType": "uint256",
          "name": "value",
          "type": "uint256"
        }
      ],
      "name": "Debug",
      "type": "event"
    },
    {
      "anonymous": false,
      "inputs": [
        {
          "indexed": true,
          "internalType": "address",
          "name": "previousOwner",
          "type": "address"
        },
        {
          "indexed": true,
          "internalType": "address",
          "name": "newOwner",
          "type": "address"
        }
      ],
      "name": "OwnershipTransferred",
      "type": "event"
    },
    {
      "anonymous": false,
      "inputs": [
        {
          "indexed": true,
          "internalType": "address",
          "name": "from",
          "type": "address"
        },
        {
          "indexed": true,
          "internalType": "address",
          "name": "to",
          "type": "address"
        },
        {
          "indexed": false,
          "internalType": "uint256",
          "name": "value",
          "type": "uint256"
        }
      ],
      "name": "Transfer",
      "type": "event"
    },
    {
      "inputs": [
        {
          "internalType": "address",
          "name": "owner",
          "type": "address"
        },
        {
          "internalType": "address",
          "name": "spender",
          "type": "address"
        }
      ],
      "name": "allowance",
      "outputs": [
        {
          "internalType": "uint256",
          "name": "",
          "type": "uint256"
        }
      ],
      "stateMutability": "view",
      "type": "function"
    },
    {
      "inputs": [
        {
          "internalType": "address",
          "name": "spender",
          "type": "address"
        },
        {
          "internalType": "uint256",
          "name": "amount",
          "type": "uint256"
        }
      ],
      "name": "approve",
      "outputs": [
        {
          "internalType": "bool",
          "name": "",
          "type": "bool"
        }
      ],
      "stateMutability": "nonpayable",
      "type": "function"
    },
    {
      "inputs": [
        {
          "internalType": "address",
          "name": "account",
          "type": "address"
        }
      ],
      "name": "balanceOf",
      "outputs": [
        {
          "internalType": "uint256",
          "name": "",
          "type": "uint256"
        }
      ],
      "stateMutability": "view",
      "type": "function"
    },
    {
      "inputs": [],
      "name": "decimals",
      "outputs": [
        {
          "internalType": "uint8",
          "name": "",
          "type": "uint8"
        }
      ],
      "stateMutability": "view",
      "type": "function"
    },
    {
      "inputs": [
        {
          "internalType": "address",
          "name": "spender",
          "type": "address"
        },
        {
          "internalType": "uint256",
          "name": "subtractedValue",
          "type": "uint256"
        }
      ],
      "name": "decreaseAllowance",
      "outputs": [
        {
          "internalType": "bool",
          "name": "",
          "type": "bool"
        }
      ],
      "stateMutability": "nonpayable",
      "type": "function"
    },
    {
      "inputs": [],
      "name": "disableReflection",
      "outputs": [],
      "stateMutability": "nonpayable",
      "type": "function"
    },
    {
      "inputs": [
        {
          "internalType": "address",
          "name": "account",
          "type": "address"
        }
      ],
      "name": "excludeAccount",
      "outputs": [],
      "stateMutability": "nonpayable",
      "type": "function"
    },
    {
      "inputs": [
        {
          "internalType": "address",
          "name": "account",
          "type": "address"
        }
      ],
      "name": "includeAccount",
      "outputs": [],
      "stateMutability": "nonpayable",
      "type": "function"
    },
    {
      "inputs": [
        {
          "internalType": "address",
          "name": "spender",
          "type": "address"
        },
        {
          "internalType": "uint256",
          "name": "addedValue",
          "type": "uint256"
        }
      ],
      "name": "increaseAllowance",
      "outputs": [
        {
          "internalType": "bool",
          "name": "",
          "type": "bool"
        }
      ],
      "stateMutability": "nonpayable",
      "type": "function"
    },
    {
      "inputs": [
        {
          "internalType": "address",
          "name": "account",
          "type": "address"
        }
      ],
      "name": "isExcluded",
      "outputs": [
        {
          "internalType": "bool",
          "name": "",
          "type": "bool"
        }
      ],
      "stateMutability": "view",
      "type": "function"
    },
    {
      "inputs": [],
      "name": "name",
      "outputs": [
        {
          "internalType": "string",
          "name": "",
          "type": "string"
        }
      ],
      "stateMutability": "view",
      "type": "function"
    },
    {
      "inputs": [],
      "name": "owner",
      "outputs": [
        {
          "internalType": "address",
          "name": "",
          "type": "address"
        }
      ],
      "stateMutability": "view",
      "type": "function"
    },
    {
      "inputs": [
        {
          "internalType": "uint256",
          "name": "tAmount",
          "type": "uint256"
        },
        {
          "internalType": "bool",
          "name": "deductTransferFee",
          "type": "bool"
        }
      ],
      "name": "reflectionFromToken",
      "outputs": [
        {
          "internalType": "uint256",
          "name": "",
          "type": "uint256"
        }
      ],
      "stateMutability": "view",
      "type": "function"
    },
    {
      "inputs": [],
      "name": "renounceOwnership",
      "outputs": [],
      "stateMutability": "nonpayable",
      "type": "function"
    },
    {
      "inputs": [],
      "name": "symbol",
      "outputs": [
        {
          "internalType": "string",
          "name": "",
          "type": "string"
        }
      ],
      "stateMutability": "view",
      "type": "function"
    },
    {
      "inputs": [
        {
          "internalType": "uint256",
          "name": "rAmount",
          "type": "uint256"
        }
      ],
      "name": "tokenFromReflection",
      "outputs": [
        {
          "internalType": "uint256",
          "name": "",
          "type": "uint256"
        }
      ],
      "stateMutability": "view",
      "type": "function"
    },
    {
      "inputs": [],
      "name": "totalFees",
      "outputs": [
        {
          "internalType": "uint256",
          "name": "",
          "type": "uint256"
        }
      ],
      "stateMutability": "view",
      "type": "function"
    },
    {
      "inputs": [],
      "name": "totalSupply",
      "outputs": [
        {
          "internalType": "uint256",
          "name": "",
          "type": "uint256"
        }
      ],
      "stateMutability": "view",
      "type": "function"
    },
    {
      "inputs": [
        {
          "internalType": "address",
          "name": "recipient",
          "type": "address"
        },
        {
          "internalType": "uint256",
          "name": "amount",
          "type": "uint256"
        }
      ],
      "name": "transfer",
      "outputs": [
        {
          "internalType": "bool",
          "name": "",
          "type": "bool"
        }
      ],
      "stateMutability": "nonpayable",
      "type": "function"
    },
    {
      "inputs": [
        {
          "internalType": "address",
          "name": "sender",
          "type": "address"
        },
        {
          "internalType": "address",
          "name": "recipient",
          "type": "address"
        },
        {
          "internalType": "uint256",
          "name": "amount",
          "type": "uint256"
        }
      ],
      "name": "transferFrom",
      "outputs": [
        {
          "internalType": "bool",
          "name": "",
          "type": "bool"
        }
      ],
      "stateMutability": "nonpayable",
      "type": "function"
    },
    {
      "inputs": [
        {
          "internalType": "address",
          "name": "newOwner",
          "type": "address"
        }
      ],
      "name": "transferOwnership",
      "outputs": [],
      "stateMutability": "nonpayable",
      "type": "function"
    }
  ],
  "bytecode": "0x60c06040526009600060146101000a81548160ff021916908360ff1602179055506001600560006101000a81548160ff0219169083151502179055503480156200004857600080fd5b506040518060400160405280600481526020017f476f6c64000000000000000000000000000000000000000000000000000000008152506040518060400160405280600481526020017f474f4c4400000000000000000000000000000000000000000000000000000000815250662386f26fc1000060046000620000d16200036860201b60201c565b9050806000806101000a81548173ffffffffffffffffffffffffffffffffffffffff021916908373ffffffffffffffffffffffffffffffffffffffff1602179055508073ffffffffffffffffffffffffffffffffffffffff16600073ffffffffffffffffffffffffffffffffffffffff167f8be0079c531659141344cd1fd0a4f28419497f9722a3daafe3b4186f6b6457e060405160405180910390a3508160a08181525050806080818152505083600190805190602001906200019792919062000370565b508260029080519060200190620001b092919062000370565b5081600019620001c19190620004c9565b600019620001d091906200044e565b60038190555060035460096000620001ed6200036860201b60201c565b73ffffffffffffffffffffffffffffffffffffffff1673ffffffffffffffffffffffffffffffffffffffff168152602001908152602001600020819055506001600660008073ffffffffffffffffffffffffffffffffffffffff1673ffffffffffffffffffffffffffffffffffffffff16815260200190815260200160002060006101000a81548160ff021916908315150217905550600860009080600181540180825580915050600190039060005260206000200160009091909190916101000a81548173ffffffffffffffffffffffffffffffffffffffff021916908373ffffffffffffffffffffffffffffffffffffffff160217905550620002f76200036860201b60201c565b73ffffffffffffffffffffffffffffffffffffffff16600073ffffffffffffffffffffffffffffffffffffffff167fddf252ad1be2c89b69c2b068fc378daa952ba7f163c4a11628f55a4df523b3ef8460405162000356919062000431565b60405180910390a3505050506200058e565b600033905090565b8280546200037e9062000493565b90600052602060002090601f016020900481019282620003a25760008555620003ee565b82601f10620003bd57805160ff1916838001178555620003ee565b82800160010185558215620003ee579182015b82811115620003ed578251825591602001919060010190620003d0565b5b509050620003fd919062000401565b5090565b5b808211156200041c57600081600090555060010162000402565b5090565b6200042b8162000489565b82525050565b600060208201905062000448600083018462000420565b92915050565b60006200045b8262000489565b9150620004688362000489565b9250828210156200047e576200047d62000501565b5b828203905092915050565b6000819050919050565b60006002820490506001821680620004ac57607f821691505b60208210811415620004c357620004c26200055f565b5b50919050565b6000620004d68262000489565b9150620004e38362000489565b925082620004f657620004f562000530565b5b828206905092915050565b7f4e487b7100000000000000000000000000000000000000000000000000000000600052601160045260246000fd5b7f4e487b7100000000000000000000000000000000000000000000000000000000600052601260045260246000fd5b7f4e487b7100000000000000000000000000000000000000000000000000000000600052602260045260246000fd5b60805160a0516137aa620005e5600039600081816104f60152818161072e01528181612565015281816126f3015281816128a701526128e301526000818161294401528181612a220152612a5901526137aa6000f3fe608060405234801561001057600080fd5b50600436106101375760003560e01c8063715018a6116100b8578063a9059cbb1161007c578063a9059cbb14610354578063cba0e99614610384578063dd62ed3e146103b4578063f2cc0c18146103e4578063f2fde38b14610400578063f84354f11461041c57610137565b8063715018a6146102d457806381d61465146102de5780638da5cb5b146102e857806395d89b4114610306578063a457c2d71461032457610137565b80632d838119116100ff5780632d838119146101f6578063313ce5671461022657806339509351146102445780634549b0391461027457806370a08231146102a457610137565b806306fdde031461013c578063095ea7b31461015a57806313114a9d1461018a57806318160ddd146101a857806323b872dd146101c6575b600080fd5b610144610438565b6040516101519190612fd4565b60405180910390f35b610174600480360381019061016f9190612d2a565b6104ca565b6040516101819190612fb9565b60405180910390f35b6101926104e8565b60405161019f9190613136565b60405180910390f35b6101b06104f2565b6040516101bd9190613136565b60405180910390f35b6101e060048036038101906101db9190612cdb565b61051a565b6040516101ed9190612fb9565b60405180910390f35b610210600480360381019061020b9190612d66565b6105f3565b60405161021d9190613136565b60405180910390f35b61022e610661565b60405161023b9190613151565b60405180910390f35b61025e60048036038101906102599190612d2a565b610677565b60405161026b9190612fb9565b60405180910390f35b61028e60048036038101906102899190612d8f565b61072a565b60405161029b9190613136565b60405180910390f35b6102be60048036038101906102b99190612c76565b6107ca565b6040516102cb9190613136565b60405180910390f35b6102dc6108b5565b005b6102e66109ef565b005b6102f0610a88565b6040516102fd9190612f9e565b60405180910390f35b61030e610ab1565b60405161031b9190612fd4565b60405180910390f35b61033e60048036038101906103399190612d2a565b610b43565b60405161034b9190612fb9565b60405180910390f35b61036e60048036038101906103699190612d2a565b610c10565b60405161037b9190612fb9565b60405180910390f35b61039e60048036038101906103999190612c76565b610c2e565b6040516103ab9190612fb9565b60405180910390f35b6103ce60048036038101906103c99190612c9f565b610c84565b6040516103db9190613136565b60405180910390f35b6103fe60048036038101906103f99190612c76565b610d0b565b005b61041a60048036038101906104159190612c76565b610fa6565b005b61043660048036038101906104319190612c76565b61114f565b005b60606001805461044790613325565b80601f016020809104026020016040519081016040528092919081815260200182805461047390613325565b80156104c05780601f10610495576101008083540402835291602001916104c0565b820191906000526020600020905b8154815290600101906020018083116104a357829003601f168201915b5050505050905090565b60006104de6104d761151d565b8484611525565b6001905092915050565b6000600454905090565b60007f0000000000000000000000000000000000000000000000000000000000000000905090565b60006105278484846116f0565b6105e88461053361151d565b6105e38560405180606001604052806028815260200161372860289139600760008b73ffffffffffffffffffffffffffffffffffffffff1673ffffffffffffffffffffffffffffffffffffffff168152602001908152602001600020600061059961151d565b73ffffffffffffffffffffffffffffffffffffffff1673ffffffffffffffffffffffffffffffffffffffff16815260200190815260200160002054611b079092919063ffffffff16565b611525565b600190509392505050565b600060035482111561063a576040517f08c379a000000000000000000000000000000000000000000000000000000000815260040161063190613016565b60405180910390fd5b6000610644611b5c565b90506106598184611b8790919063ffffffff16565b915050919050565b60008060149054906101000a900460ff16905090565b600061072061068461151d565b8461071b856007600061069561151d565b73ffffffffffffffffffffffffffffffffffffffff1673ffffffffffffffffffffffffffffffffffffffff16815260200190815260200160002060008973ffffffffffffffffffffffffffffffffffffffff1673ffffffffffffffffffffffffffffffffffffffff16815260200190815260200160002054611b9d90919063ffffffff16565b611525565b6001905092915050565b60007f000000000000000000000000000000000000000000000000000000000000000083111561078f576040517f08c379a000000000000000000000000000000000000000000000000000000000815260040161078690613096565b60405180910390fd5b816107ae57600061079f84611bb3565b505050509050809150506107c4565b60006107b984611bb3565b505050915050809150505b92915050565b6000600660008373ffffffffffffffffffffffffffffffffffffffff1673ffffffffffffffffffffffffffffffffffffffff16815260200190815260200160002060009054906101000a900460ff161561086557600a60008373ffffffffffffffffffffffffffffffffffffffff1673ffffffffffffffffffffffffffffffffffffffff1681526020019081526020016000205490506108b0565b6108ad600960008473ffffffffffffffffffffffffffffffffffffffff1673ffffffffffffffffffffffffffffffffffffffff168152602001908152602001600020546105f3565b90505b919050565b6108bd61151d565b73ffffffffffffffffffffffffffffffffffffffff166108db610a88565b73ffffffffffffffffffffffffffffffffffffffff1614610931576040517f08c379a0000000000000000000000000000000000000000000000000000000008152600401610928906130b6565b60405180910390fd5b600073ffffffffffffffffffffffffffffffffffffffff1660008054906101000a900473ffffffffffffffffffffffffffffffffffffffff1673ffffffffffffffffffffffffffffffffffffffff167f8be0079c531659141344cd1fd0a4f28419497f9722a3daafe3b4186f6b6457e060405160405180910390a360008060006101000a81548173ffffffffffffffffffffffffffffffffffffffff021916908373ffffffffffffffffffffffffffffffffffffffff160217905550565b6109f761151d565b73ffffffffffffffffffffffffffffffffffffffff16610a15610a88565b73ffffffffffffffffffffffffffffffffffffffff1614610a6b576040517f08c379a0000000000000000000000000000000000000000000000000000000008152600401610a62906130b6565b60405180910390fd5b6000600560006101000a81548160ff021916908315150217905550565b60008060009054906101000a900473ffffffffffffffffffffffffffffffffffffffff16905090565b606060028054610ac090613325565b80601f0160208091040260200160405190810160405280929190818152602001828054610aec90613325565b8015610b395780601f10610b0e57610100808354040283529160200191610b39565b820191906000526020600020905b815481529060010190602001808311610b1c57829003601f168201915b5050505050905090565b6000610c06610b5061151d565b84610c01856040518060600160405280602581526020016137506025913960076000610b7a61151d565b73ffffffffffffffffffffffffffffffffffffffff1673ffffffffffffffffffffffffffffffffffffffff16815260200190815260200160002060008a73ffffffffffffffffffffffffffffffffffffffff1673ffffffffffffffffffffffffffffffffffffffff16815260200190815260200160002054611b079092919063ffffffff16565b611525565b6001905092915050565b6000610c24610c1d61151d565b84846116f0565b6001905092915050565b6000600660008373ffffffffffffffffffffffffffffffffffffffff1673ffffffffffffffffffffffffffffffffffffffff16815260200190815260200160002060009054906101000a900460ff169050919050565b6000600760008473ffffffffffffffffffffffffffffffffffffffff1673ffffffffffffffffffffffffffffffffffffffff16815260200190815260200160002060008373ffffffffffffffffffffffffffffffffffffffff1673ffffffffffffffffffffffffffffffffffffffff16815260200190815260200160002054905092915050565b610d1361151d565b73ffffffffffffffffffffffffffffffffffffffff16610d31610a88565b73ffffffffffffffffffffffffffffffffffffffff1614610d87576040517f08c379a0000000000000000000000000000000000000000000000000000000008152600401610d7e906130b6565b60405180910390fd5b600660008273ffffffffffffffffffffffffffffffffffffffff1673ffffffffffffffffffffffffffffffffffffffff16815260200190815260200160002060009054906101000a900460ff1615610e14576040517f08c379a0000000000000000000000000000000000000000000000000000000008152600401610e0b90613076565b60405180910390fd5b6000600960008373ffffffffffffffffffffffffffffffffffffffff1673ffffffffffffffffffffffffffffffffffffffff168152602001908152602001600020541115610ee857610ea4600960008373ffffffffffffffffffffffffffffffffffffffff1673ffffffffffffffffffffffffffffffffffffffff168152602001908152602001600020546105f3565b600a60008373ffffffffffffffffffffffffffffffffffffffff1673ffffffffffffffffffffffffffffffffffffffff168152602001908152602001600020819055505b6001600660008373ffffffffffffffffffffffffffffffffffffffff1673ffffffffffffffffffffffffffffffffffffffff16815260200190815260200160002060006101000a81548160ff0219169083151502179055506008819080600181540180825580915050600190039060005260206000200160009091909190916101000a81548173ffffffffffffffffffffffffffffffffffffffff021916908373ffffffffffffffffffffffffffffffffffffffff16021790555050565b610fae61151d565b73ffffffffffffffffffffffffffffffffffffffff16610fcc610a88565b73ffffffffffffffffffffffffffffffffffffffff1614611022576040517f08c379a0000000000000000000000000000000000000000000000000000000008152600401611019906130b6565b60405180910390fd5b600073ffffffffffffffffffffffffffffffffffffffff168173ffffffffffffffffffffffffffffffffffffffff161415611092576040517f08c379a000000000000000000000000000000000000000000000000000000000815260040161108990613036565b60405180910390fd5b8073ffffffffffffffffffffffffffffffffffffffff1660008054906101000a900473ffffffffffffffffffffffffffffffffffffffff1673ffffffffffffffffffffffffffffffffffffffff167f8be0079c531659141344cd1fd0a4f28419497f9722a3daafe3b4186f6b6457e060405160405180910390a3806000806101000a81548173ffffffffffffffffffffffffffffffffffffffff021916908373ffffffffffffffffffffffffffffffffffffffff16021790555050565b61115761151d565b73ffffffffffffffffffffffffffffffffffffffff16611175610a88565b73ffffffffffffffffffffffffffffffffffffffff16146111cb576040517f08c379a00000000000000000000000000000000000000000000000000000000081526004016111c2906130b6565b60405180910390fd5b600660008273ffffffffffffffffffffffffffffffffffffffff1673ffffffffffffffffffffffffffffffffffffffff16815260200190815260200160002060009054906101000a900460ff16611257576040517f08c379a000000000000000000000000000000000000000000000000000000000815260040161124e90613076565b60405180910390fd5b60005b600880549050811015611519578173ffffffffffffffffffffffffffffffffffffffff16600882815481106112b8577f4e487b7100000000000000000000000000000000000000000000000000000000600052603260045260246000fd5b9060005260206000200160009054906101000a900473ffffffffffffffffffffffffffffffffffffffff1673ffffffffffffffffffffffffffffffffffffffff16141561150657600860016008805490506113139190613269565b8154811061134a577f4e487b7100000000000000000000000000000000000000000000000000000000600052603260045260246000fd5b9060005260206000200160009054906101000a900473ffffffffffffffffffffffffffffffffffffffff16600882815481106113af577f4e487b7100000000000000000000000000000000000000000000000000000000600052603260045260246000fd5b9060005260206000200160006101000a81548173ffffffffffffffffffffffffffffffffffffffff021916908373ffffffffffffffffffffffffffffffffffffffff1602179055506000600a60008473ffffffffffffffffffffffffffffffffffffffff1673ffffffffffffffffffffffffffffffffffffffff168152602001908152602001600020819055506000600660008473ffffffffffffffffffffffffffffffffffffffff1673ffffffffffffffffffffffffffffffffffffffff16815260200190815260200160002060006101000a81548160ff02191690831515021790555060088054806114cc577f4e487b7100000000000000000000000000000000000000000000000000000000600052603160045260246000fd5b6001900381819060005260206000200160006101000a81549073ffffffffffffffffffffffffffffffffffffffff02191690559055611519565b808061151190613357565b91505061125a565b5050565b600033905090565b600073ffffffffffffffffffffffffffffffffffffffff168373ffffffffffffffffffffffffffffffffffffffff161415611595576040517f08c379a000000000000000000000000000000000000000000000000000000000815260040161158c90613116565b60405180910390fd5b600073ffffffffffffffffffffffffffffffffffffffff168273ffffffffffffffffffffffffffffffffffffffff161415611605576040517f08c379a00000000000000000000000000000000000000000000000000000000081526004016115fc90613056565b60405180910390fd5b80600760008573ffffffffffffffffffffffffffffffffffffffff1673ffffffffffffffffffffffffffffffffffffffff16815260200190815260200160002060008473ffffffffffffffffffffffffffffffffffffffff1673ffffffffffffffffffffffffffffffffffffffff168152602001908152602001600020819055508173ffffffffffffffffffffffffffffffffffffffff168373ffffffffffffffffffffffffffffffffffffffff167f8c5be1e5ebec7d5bd14f71427d1e84f3dd0314c0f7b2291e5b200ac8c7c3b925836040516116e39190613136565b60405180910390a3505050565b600073ffffffffffffffffffffffffffffffffffffffff168373ffffffffffffffffffffffffffffffffffffffff161415611760576040517f08c379a0000000000000000000000000000000000000000000000000000000008152600401611757906130f6565b60405180910390fd5b600073ffffffffffffffffffffffffffffffffffffffff168273ffffffffffffffffffffffffffffffffffffffff1614156117d0576040517f08c379a00000000000000000000000000000000000000000000000000000000081526004016117c790612ff6565b60405180910390fd5b60008111611813576040517f08c379a000000000000000000000000000000000000000000000000000000000815260040161180a906130d6565b60405180910390fd5b600660008473ffffffffffffffffffffffffffffffffffffffff1673ffffffffffffffffffffffffffffffffffffffff16815260200190815260200160002060009054906101000a900460ff1680156118b65750600660008373ffffffffffffffffffffffffffffffffffffffff1673ffffffffffffffffffffffffffffffffffffffff16815260200190815260200160002060009054906101000a900460ff16155b156118cb576118c6838383611c0b565b611b02565b600660008473ffffffffffffffffffffffffffffffffffffffff1673ffffffffffffffffffffffffffffffffffffffff16815260200190815260200160002060009054906101000a900460ff1615801561196e5750600660008373ffffffffffffffffffffffffffffffffffffffff1673ffffffffffffffffffffffffffffffffffffffff16815260200190815260200160002060009054906101000a900460ff165b156119835761197e838383611e5e565b611b01565b600660008473ffffffffffffffffffffffffffffffffffffffff1673ffffffffffffffffffffffffffffffffffffffff16815260200190815260200160002060009054906101000a900460ff16158015611a275750600660008373ffffffffffffffffffffffffffffffffffffffff1673ffffffffffffffffffffffffffffffffffffffff16815260200190815260200160002060009054906101000a900460ff16155b15611a3c57611a378383836120b1565b611b00565b600660008473ffffffffffffffffffffffffffffffffffffffff1673ffffffffffffffffffffffffffffffffffffffff16815260200190815260200160002060009054906101000a900460ff168015611ade5750600660008373ffffffffffffffffffffffffffffffffffffffff1673ffffffffffffffffffffffffffffffffffffffff16815260200190815260200160002060009054906101000a900460ff165b15611af357611aee83838361226f565b611aff565b611afe8383836120b1565b5b5b5b5b505050565b6000838311158290611b4f576040517f08c379a0000000000000000000000000000000000000000000000000000000008152600401611b469190612fd4565b60405180910390fd5b5082840390509392505050565b6000806000611b69612557565b91509150611b808183611b8790919063ffffffff16565b9250505090565b60008183611b9591906131de565b905092915050565b60008183611bab9190613188565b905092915050565b6000806000806000806000611bc78861291a565b915091506000611bd5611b5c565b90506000806000611be78c86866129a7565b92509250925082828288889a509a509a509a509a5050505050505091939590929450565b6000806000806000611c1c86611bb3565b94509450945094509450611c7886600a60008b73ffffffffffffffffffffffffffffffffffffffff1673ffffffffffffffffffffffffffffffffffffffff16815260200190815260200160002054612a0590919063ffffffff16565b600a60008a73ffffffffffffffffffffffffffffffffffffffff1673ffffffffffffffffffffffffffffffffffffffff16815260200190815260200160002081905550611d0d85600960008b73ffffffffffffffffffffffffffffffffffffffff1673ffffffffffffffffffffffffffffffffffffffff16815260200190815260200160002054612a0590919063ffffffff16565b600960008a73ffffffffffffffffffffffffffffffffffffffff1673ffffffffffffffffffffffffffffffffffffffff16815260200190815260200160002081905550611da284600960008a73ffffffffffffffffffffffffffffffffffffffff1673ffffffffffffffffffffffffffffffffffffffff16815260200190815260200160002054611b9d90919063ffffffff16565b600960008973ffffffffffffffffffffffffffffffffffffffff1673ffffffffffffffffffffffffffffffffffffffff16815260200190815260200160002081905550611def8382612a1b565b8673ffffffffffffffffffffffffffffffffffffffff168873ffffffffffffffffffffffffffffffffffffffff167fddf252ad1be2c89b69c2b068fc378daa952ba7f163c4a11628f55a4df523b3ef84604051611e4c9190613136565b60405180910390a35050505050505050565b6000806000806000611e6f86611bb3565b94509450945094509450611ecb85600960008b73ffffffffffffffffffffffffffffffffffffffff1673ffffffffffffffffffffffffffffffffffffffff16815260200190815260200160002054612a0590919063ffffffff16565b600960008a73ffffffffffffffffffffffffffffffffffffffff1673ffffffffffffffffffffffffffffffffffffffff16815260200190815260200160002081905550611f6082600a60008a73ffffffffffffffffffffffffffffffffffffffff1673ffffffffffffffffffffffffffffffffffffffff16815260200190815260200160002054611b9d90919063ffffffff16565b600a60008973ffffffffffffffffffffffffffffffffffffffff1673ffffffffffffffffffffffffffffffffffffffff16815260200190815260200160002081905550611ff584600960008a73ffffffffffffffffffffffffffffffffffffffff1673ffffffffffffffffffffffffffffffffffffffff16815260200190815260200160002054611b9d90919063ffffffff16565b600960008973ffffffffffffffffffffffffffffffffffffffff1673ffffffffffffffffffffffffffffffffffffffff168152602001908152602001600020819055506120428382612a1b565b8673ffffffffffffffffffffffffffffffffffffffff168873ffffffffffffffffffffffffffffffffffffffff167fddf252ad1be2c89b69c2b068fc378daa952ba7f163c4a11628f55a4df523b3ef8460405161209f9190613136565b60405180910390a35050505050505050565b60008060008060006120c286611bb3565b9450945094509450945061211e85600960008b73ffffffffffffffffffffffffffffffffffffffff1673ffffffffffffffffffffffffffffffffffffffff16815260200190815260200160002054612a0590919063ffffffff16565b600960008a73ffffffffffffffffffffffffffffffffffffffff1673ffffffffffffffffffffffffffffffffffffffff168152602001908152602001600020819055506121b384600960008a73ffffffffffffffffffffffffffffffffffffffff1673ffffffffffffffffffffffffffffffffffffffff16815260200190815260200160002054611b9d90919063ffffffff16565b600960008973ffffffffffffffffffffffffffffffffffffffff1673ffffffffffffffffffffffffffffffffffffffff168152602001908152602001600020819055506122008382612a1b565b8673ffffffffffffffffffffffffffffffffffffffff168873ffffffffffffffffffffffffffffffffffffffff167fddf252ad1be2c89b69c2b068fc378daa952ba7f163c4a11628f55a4df523b3ef8460405161225d9190613136565b60405180910390a35050505050505050565b600080600080600061228086611bb3565b945094509450945094506122dc86600a60008b73ffffffffffffffffffffffffffffffffffffffff1673ffffffffffffffffffffffffffffffffffffffff16815260200190815260200160002054612a0590919063ffffffff16565b600a60008a73ffffffffffffffffffffffffffffffffffffffff1673ffffffffffffffffffffffffffffffffffffffff1681526020019081526020016000208190555061237185600960008b73ffffffffffffffffffffffffffffffffffffffff1673ffffffffffffffffffffffffffffffffffffffff16815260200190815260200160002054612a0590919063ffffffff16565b600960008a73ffffffffffffffffffffffffffffffffffffffff1673ffffffffffffffffffffffffffffffffffffffff1681526020019081526020016000208190555061240682600a60008a73ffffffffffffffffffffffffffffffffffffffff1673ffffffffffffffffffffffffffffffffffffffff16815260200190815260200160002054611b9d90919063ffffffff16565b600a60008973ffffffffffffffffffffffffffffffffffffffff1673ffffffffffffffffffffffffffffffffffffffff1681526020019081526020016000208190555061249b84600960008a73ffffffffffffffffffffffffffffffffffffffff1673ffffffffffffffffffffffffffffffffffffffff16815260200190815260200160002054611b9d90919063ffffffff16565b600960008973ffffffffffffffffffffffffffffffffffffffff1673ffffffffffffffffffffffffffffffffffffffff168152602001908152602001600020819055506124e88382612a1b565b8673ffffffffffffffffffffffffffffffffffffffff168873ffffffffffffffffffffffffffffffffffffffff167fddf252ad1be2c89b69c2b068fc378daa952ba7f163c4a11628f55a4df523b3ef846040516125459190613136565b60405180910390a35050505050505050565b6000806000600354905060007f0000000000000000000000000000000000000000000000000000000000000000905060005b6008805490508110156128a1578260096000600884815481106125d5577f4e487b7100000000000000000000000000000000000000000000000000000000600052603260045260246000fd5b9060005260206000200160009054906101000a900473ffffffffffffffffffffffffffffffffffffffff1673ffffffffffffffffffffffffffffffffffffffff1673ffffffffffffffffffffffffffffffffffffffff1681526020019081526020016000205411806126e9575081600a600060088481548110612681577f4e487b7100000000000000000000000000000000000000000000000000000000600052603260045260246000fd5b9060005260206000200160009054906101000a900473ffffffffffffffffffffffffffffffffffffffff1673ffffffffffffffffffffffffffffffffffffffff1673ffffffffffffffffffffffffffffffffffffffff16815260200190815260200160002054115b1561271e576003547f000000000000000000000000000000000000000000000000000000000000000094509450505050612916565b6127d4600960006008848154811061275f577f4e487b7100000000000000000000000000000000000000000000000000000000600052603260045260246000fd5b9060005260206000200160009054906101000a900473ffffffffffffffffffffffffffffffffffffffff1673ffffffffffffffffffffffffffffffffffffffff1673ffffffffffffffffffffffffffffffffffffffff1681526020019081526020016000205484612a0590919063ffffffff16565b925061288c600a600060088481548110612817577f4e487b7100000000000000000000000000000000000000000000000000000000600052603260045260246000fd5b9060005260206000200160009054906101000a900473ffffffffffffffffffffffffffffffffffffffff1673ffffffffffffffffffffffffffffffffffffffff1673ffffffffffffffffffffffffffffffffffffffff1681526020019081526020016000205483612a0590919063ffffffff16565b9150808061289990613357565b915050612589565b506128d77f0000000000000000000000000000000000000000000000000000000000000000600354611b8790919063ffffffff16565b82101561290d576003547f0000000000000000000000000000000000000000000000000000000000000000935093505050612916565b81819350935050505b9091565b6000806000600560009054906101000a900460ff1661293a576000612981565b61298060646129727f000000000000000000000000000000000000000000000000000000000000000087612be790919063ffffffff16565b611b8790919063ffffffff16565b5b905060006129988286612a0590919063ffffffff16565b90508082935093505050915091565b6000806000806129c08588612be790919063ffffffff16565b905060006129d78688612be790919063ffffffff16565b905060006129ee8284612a0590919063ffffffff16565b905082818395509550955050505093509350939050565b60008183612a139190613269565b905092915050565b6000612a507f000000000000000000000000000000000000000000000000000000000000000084611b8790919063ffffffff16565b90506000612a877f000000000000000000000000000000000000000000000000000000000000000084611b8790919063ffffffff16565b9050612aed612a9f8386612a0590919063ffffffff16565b600960008073ffffffffffffffffffffffffffffffffffffffff1673ffffffffffffffffffffffffffffffffffffffff16815260200190815260200160002054611b9d90919063ffffffff16565b600960008073ffffffffffffffffffffffffffffffffffffffff1673ffffffffffffffffffffffffffffffffffffffff16815260200190815260200160002081905550612b94612b468285612a0590919063ffffffff16565b600a60008073ffffffffffffffffffffffffffffffffffffffff1673ffffffffffffffffffffffffffffffffffffffff16815260200190815260200160002054611b9d90919063ffffffff16565b600a60008073ffffffffffffffffffffffffffffffffffffffff1673ffffffffffffffffffffffffffffffffffffffff16815260200190815260200160002081905550612be18282612bfd565b50505050565b60008183612bf5919061320f565b905092915050565b612c1282600354612a0590919063ffffffff16565b600381905550612c2d81600454611b9d90919063ffffffff16565b6004819055505050565b600081359050612c46816136e2565b92915050565b600081359050612c5b816136f9565b92915050565b600081359050612c7081613710565b92915050565b600060208284031215612c8857600080fd5b6000612c9684828501612c37565b91505092915050565b60008060408385031215612cb257600080fd5b6000612cc085828601612c37565b9250506020612cd185828601612c37565b9150509250929050565b600080600060608486031215612cf057600080fd5b6000612cfe86828701612c37565b9350506020612d0f86828701612c37565b9250506040612d2086828701612c61565b9150509250925092565b60008060408385031215612d3d57600080fd5b6000612d4b85828601612c37565b9250506020612d5c85828601612c61565b9150509250929050565b600060208284031215612d7857600080fd5b6000612d8684828501612c61565b91505092915050565b60008060408385031215612da257600080fd5b6000612db085828601612c61565b9250506020612dc185828601612c4c565b9150509250929050565b612dd48161329d565b82525050565b612de3816132af565b82525050565b6000612df48261316c565b612dfe8185613177565b9350612e0e8185602086016132f2565b612e178161342d565b840191505092915050565b6000612e2f602383613177565b9150612e3a8261343e565b604082019050919050565b6000612e52602a83613177565b9150612e5d8261348d565b604082019050919050565b6000612e75602683613177565b9150612e80826134dc565b604082019050919050565b6000612e98602283613177565b9150612ea38261352b565b604082019050919050565b6000612ebb601b83613177565b9150612ec68261357a565b602082019050919050565b6000612ede601f83613177565b9150612ee9826135a3565b602082019050919050565b6000612f01602083613177565b9150612f0c826135cc565b602082019050919050565b6000612f24602983613177565b9150612f2f826135f5565b604082019050919050565b6000612f47602583613177565b9150612f5282613644565b604082019050919050565b6000612f6a602483613177565b9150612f7582613693565b604082019050919050565b612f89816132db565b82525050565b612f98816132e5565b82525050565b6000602082019050612fb36000830184612dcb565b92915050565b6000602082019050612fce6000830184612dda565b92915050565b60006020820190508181036000830152612fee8184612de9565b905092915050565b6000602082019050818103600083015261300f81612e22565b9050919050565b6000602082019050818103600083015261302f81612e45565b9050919050565b6000602082019050818103600083015261304f81612e68565b9050919050565b6000602082019050818103600083015261306f81612e8b565b9050919050565b6000602082019050818103600083015261308f81612eae565b9050919050565b600060208201905081810360008301526130af81612ed1565b9050919050565b600060208201905081810360008301526130cf81612ef4565b9050919050565b600060208201905081810360008301526130ef81612f17565b9050919050565b6000602082019050818103600083015261310f81612f3a565b9050919050565b6000602082019050818103600083015261312f81612f5d565b9050919050565b600060208201905061314b6000830184612f80565b92915050565b60006020820190506131666000830184612f8f565b92915050565b600081519050919050565b600082825260208201905092915050565b6000613193826132db565b915061319e836132db565b9250827fffffffffffffffffffffffffffffffffffffffffffffffffffffffffffffffff038211156131d3576131d26133a0565b5b828201905092915050565b60006131e9826132db565b91506131f4836132db565b925082613204576132036133cf565b5b828204905092915050565b600061321a826132db565b9150613225836132db565b9250817fffffffffffffffffffffffffffffffffffffffffffffffffffffffffffffffff048311821515161561325e5761325d6133a0565b5b828202905092915050565b6000613274826132db565b915061327f836132db565b925082821015613292576132916133a0565b5b828203905092915050565b60006132a8826132bb565b9050919050565b60008115159050919050565b600073ffffffffffffffffffffffffffffffffffffffff82169050919050565b6000819050919050565b600060ff82169050919050565b60005b838110156133105780820151818401526020810190506132f5565b8381111561331f576000848401525b50505050565b6000600282049050600182168061333d57607f821691505b60208210811415613351576133506133fe565b5b50919050565b6000613362826132db565b91507fffffffffffffffffffffffffffffffffffffffffffffffffffffffffffffffff821415613395576133946133a0565b5b600182019050919050565b7f4e487b7100000000000000000000000000000000000000000000000000000000600052601160045260246000fd5b7f4e487b7100000000000000000000000000000000000000000000000000000000600052601260045260246000fd5b7f4e487b7100000000000000000000000000000000000000000000000000000000600052602260045260246000fd5b6000601f19601f8301169050919050565b7f45524332303a207472616e7366657220746f20746865207a65726f206164647260008201527f6573730000000000000000000000000000000000000000000000000000000000602082015250565b7f416d6f756e74206d757374206265206c657373207468616e20746f74616c207260008201527f65666c656374696f6e7300000000000000000000000000000000000000000000602082015250565b7f4f776e61626c653a206e6577206f776e657220697320746865207a65726f206160008201527f6464726573730000000000000000000000000000000000000000000000000000602082015250565b7f45524332303a20617070726f766520746f20746865207a65726f20616464726560008201527f7373000000000000000000000000000000000000000000000000000000000000602082015250565b7f4163636f756e7420697320616c7265616479206578636c756465640000000000600082015250565b7f416d6f756e74206d757374206265206c657373207468616e20737570706c7900600082015250565b7f4f776e61626c653a2063616c6c6572206973206e6f7420746865206f776e6572600082015250565b7f5472616e7366657220616d6f756e74206d75737420626520677265617465722060008201527f7468616e207a65726f0000000000000000000000000000000000000000000000602082015250565b7f45524332303a207472616e736665722066726f6d20746865207a65726f20616460008201527f6472657373000000000000000000000000000000000000000000000000000000602082015250565b7f45524332303a20617070726f76652066726f6d20746865207a65726f2061646460008201527f7265737300000000000000000000000000000000000000000000000000000000602082015250565b6136eb8161329d565b81146136f657600080fd5b50565b613702816132af565b811461370d57600080fd5b50565b613719816132db565b811461372457600080fd5b5056fe45524332303a207472616e7366657220616d6f756e74206578636565647320616c6c6f77616e636545524332303a2064656372656173656420616c6c6f77616e63652062656c6f77207a65726fa2646970667358221220484ecbe65ba385c08c631c153ee702889841d861e43b6902e6cb79bdc1dc904f64736f6c63430008040033",
  "immutableReferences": {
    "320": [
      {
        "length": 32,
        "start": 10564
      },
      {
        "length": 32,
        "start": 10786
      },
      {
        "length": 32,
        "start": 10841
      }
    ],
    "322": [
      {
        "length": 32,
        "start": 1270
      },
      {
        "length": 32,
        "start": 1838
      },
      {
        "length": 32,
        "start": 9573
      },
      {
        "length": 32,
        "start": 9971
      },
      {
        "length": 32,
        "start": 10407
      },
      {
        "length": 32,
        "start": 10467
      }
    ]
  },
  "source": "// SPDX-License-Identifier: MIT\npragma solidity 0.8.4;\n\nimport './Base.sol';\n\ncontract GOLD is Base('Gold', 'GOLD', 10 * 10**6 * 10**9, 4) {\n    using SafeMath for uint256;\n\n    function _transferStandard(\n        address sender,\n        address recipient,\n        uint256 tAmount\n    ) internal override {\n        (\n            uint256 rAmount,\n            uint256 rTransferAmount,\n            uint256 rFee,\n            uint256 tTransferAmount,\n            uint256 tFee\n        ) = _getValues(tAmount);\n        _rOwned[sender] = _rOwned[sender].sub(rAmount);\n        _rOwned[recipient] = _rOwned[recipient].add(rTransferAmount);\n\n        _burnAndReflectFees(rFee, tFee);\n\n        emit Transfer(sender, recipient, tTransferAmount);\n    }\n\n    function _transferToExcluded(\n        address sender,\n        address recipient,\n        uint256 tAmount\n    ) internal override {\n        (\n            uint256 rAmount,\n            uint256 rTransferAmount,\n            uint256 rFee,\n            uint256 tTransferAmount,\n            uint256 tFee\n        ) = _getValues(tAmount);\n        _rOwned[sender] = _rOwned[sender].sub(rAmount);\n        _tOwned[recipient] = _tOwned[recipient].add(tTransferAmount);\n        _rOwned[recipient] = _rOwned[recipient].add(rTransferAmount);\n\n        _burnAndReflectFees(rFee, tFee);\n\n        emit Transfer(sender, recipient, tTransferAmount);\n    }\n\n    function _transferFromExcluded(\n        address sender,\n        address recipient,\n        uint256 tAmount\n    ) internal override {\n        (\n            uint256 rAmount,\n            uint256 rTransferAmount,\n            uint256 rFee,\n            uint256 tTransferAmount,\n            uint256 tFee\n        ) = _getValues(tAmount);\n        _tOwned[sender] = _tOwned[sender].sub(tAmount);\n        _rOwned[sender] = _rOwned[sender].sub(rAmount);\n        _rOwned[recipient] = _rOwned[recipient].add(rTransferAmount);\n\n        _burnAndReflectFees(rFee, tFee);\n\n        emit Transfer(sender, recipient, tTransferAmount);\n    }\n\n    function _transferBothExcluded(\n        address sender,\n        address recipient,\n        uint256 tAmount\n    ) internal override {\n        (\n            uint256 rAmount,\n            uint256 rTransferAmount,\n            uint256 rFee,\n            uint256 tTransferAmount,\n            uint256 tFee\n        ) = _getValues(tAmount);\n        _tOwned[sender] = _tOwned[sender].sub(tAmount);\n        _rOwned[sender] = _rOwned[sender].sub(rAmount);\n        _tOwned[recipient] = _tOwned[recipient].add(tTransferAmount);\n        _rOwned[recipient] = _rOwned[recipient].add(rTransferAmount);\n\n        _burnAndReflectFees(rFee, tFee);\n\n        emit Transfer(sender, recipient, tTransferAmount);\n    }\n\n    function _burnAndReflectFees(uint256 rFee, uint256 tFee) private {\n        uint256 rFeeRedistributed = rFee.div(_txPercentageFee);\n        uint256 tFeeRedistributed = tFee.div(_txPercentageFee);\n\n        _rOwned[address(0)] = _rOwned[address(0)].add(\n            rFee.sub(rFeeRedistributed)\n        );\n        _tOwned[address(0)] = _tOwned[address(0)].add(\n            tFee.sub(tFeeRedistributed)\n        );\n\n        _reflectFee(rFeeRedistributed, tFeeRedistributed);\n    }\n}\n",
  "sourcePath": "/Users/maximedupre/Desktop/programming/maximedupre/ARK/contracts/GOLD.sol",
  "compiler": {
    "name": "solc",
    "version": "0.8.4+commit.c7e474f2.Emscripten.clang"
  },
  "schemaVersion": "3.4.0",
  "updatedAt": "2021-05-05T00:20:36.449Z",
  "devdoc": {
    "kind": "dev",
    "methods": {
      "allowance(address,address)": {
        "details": "Returns the remaining number of tokens that `spender` will be allowed to spend on behalf of `owner` through {transferFrom}. This is zero by default. This value changes when {approve} or {transferFrom} are called."
      },
      "approve(address,uint256)": {
        "details": "Sets `amount` as the allowance of `spender` over the caller's tokens. Returns a boolean value indicating whether the operation succeeded. IMPORTANT: Beware that changing an allowance with this method brings the risk that someone may use both the old and the new allowance by unfortunate transaction ordering. One possible solution to mitigate this race condition is to first reduce the spender's allowance to 0 and set the desired value afterwards: https://github.com/ethereum/EIPs/issues/20#issuecomment-263524729 Emits an {Approval} event."
      },
      "balanceOf(address)": {
        "details": "Returns the amount of tokens owned by `account`."
      },
      "owner()": {
        "details": "Returns the address of the current owner."
      },
      "renounceOwnership()": {
        "details": "Leaves the contract without owner. It will not be possible to call `onlyOwner` functions anymore. Can only be called by the current owner. NOTE: Renouncing ownership will leave the contract without an owner, thereby removing any functionality that is only available to the owner."
      },
      "totalSupply()": {
        "details": "Returns the amount of tokens in existence."
      },
      "transfer(address,uint256)": {
        "details": "Moves `amount` tokens from the caller's account to `recipient`. Returns a boolean value indicating whether the operation succeeded. Emits a {Transfer} event."
      },
      "transferFrom(address,address,uint256)": {
        "details": "Moves `amount` tokens from `sender` to `recipient` using the allowance mechanism. `amount` is then deducted from the caller's allowance. Returns a boolean value indicating whether the operation succeeded. Emits a {Transfer} event."
      },
      "transferOwnership(address)": {
        "details": "Transfers ownership of the contract to a new account (`newOwner`). Can only be called by the current owner."
      }
    },
    "version": 1
  },
  "userdoc": {
    "kind": "user",
    "methods": {},
    "version": 1
  }
}