{
  "contractName": "GOLD",
  "abi": [
    {
      "anonymous": false,
      "inputs": [
        {
          "indexed": true,
          "internalType": "address",
          "name": "owner",
          "type": "address"
        },
        {
          "indexed": true,
          "internalType": "address",
          "name": "spender",
          "type": "address"
        },
        {
          "indexed": false,
          "internalType": "uint256",
          "name": "value",
          "type": "uint256"
        }
      ],
      "name": "Approval",
      "type": "event"
    },
    {
      "anonymous": false,
      "inputs": [
        {
          "indexed": false,
          "internalType": "string",
          "name": "text",
          "type": "string"
        },
        {
          "indexed": false,
          "internalType": "uint256",
          "name": "value",
          "type": "uint256"
        }
      ],
      "name": "Debug",
      "type": "event"
    },
    {
      "anonymous": false,
      "inputs": [
        {
          "indexed": true,
          "internalType": "address",
          "name": "previousOwner",
          "type": "address"
        },
        {
          "indexed": true,
          "internalType": "address",
          "name": "newOwner",
          "type": "address"
        }
      ],
      "name": "OwnershipTransferred",
      "type": "event"
    },
    {
      "anonymous": false,
      "inputs": [
        {
          "indexed": true,
          "internalType": "address",
          "name": "from",
          "type": "address"
        },
        {
          "indexed": true,
          "internalType": "address",
          "name": "to",
          "type": "address"
        },
        {
          "indexed": false,
          "internalType": "uint256",
          "name": "value",
          "type": "uint256"
        }
      ],
      "name": "Transfer",
      "type": "event"
    },
    {
      "inputs": [
        {
          "internalType": "address",
          "name": "owner",
          "type": "address"
        },
        {
          "internalType": "address",
          "name": "spender",
          "type": "address"
        }
      ],
      "name": "allowance",
      "outputs": [
        {
          "internalType": "uint256",
          "name": "",
          "type": "uint256"
        }
      ],
      "stateMutability": "view",
      "type": "function",
      "constant": true
    },
    {
      "inputs": [
        {
          "internalType": "address",
          "name": "spender",
          "type": "address"
        },
        {
          "internalType": "uint256",
          "name": "amount",
          "type": "uint256"
        }
      ],
      "name": "approve",
      "outputs": [
        {
          "internalType": "bool",
          "name": "",
          "type": "bool"
        }
      ],
      "stateMutability": "nonpayable",
      "type": "function"
    },
    {
      "inputs": [
        {
          "internalType": "address",
          "name": "account",
          "type": "address"
        }
      ],
      "name": "balanceOf",
      "outputs": [
        {
          "internalType": "uint256",
          "name": "",
          "type": "uint256"
        }
      ],
      "stateMutability": "view",
      "type": "function",
      "constant": true
    },
    {
      "inputs": [],
      "name": "decimals",
      "outputs": [
        {
          "internalType": "uint8",
          "name": "",
          "type": "uint8"
        }
      ],
      "stateMutability": "view",
      "type": "function",
      "constant": true
    },
    {
      "inputs": [
        {
          "internalType": "address",
          "name": "spender",
          "type": "address"
        },
        {
          "internalType": "uint256",
          "name": "subtractedValue",
          "type": "uint256"
        }
      ],
      "name": "decreaseAllowance",
      "outputs": [
        {
          "internalType": "bool",
          "name": "",
          "type": "bool"
        }
      ],
      "stateMutability": "nonpayable",
      "type": "function"
    },
    {
      "inputs": [
        {
          "internalType": "address",
          "name": "account",
          "type": "address"
        }
      ],
      "name": "excludeAccount",
      "outputs": [],
      "stateMutability": "nonpayable",
      "type": "function"
    },
    {
      "inputs": [
        {
          "internalType": "address",
          "name": "account",
          "type": "address"
        }
      ],
      "name": "includeAccount",
      "outputs": [],
      "stateMutability": "nonpayable",
      "type": "function"
    },
    {
      "inputs": [
        {
          "internalType": "address",
          "name": "spender",
          "type": "address"
        },
        {
          "internalType": "uint256",
          "name": "addedValue",
          "type": "uint256"
        }
      ],
      "name": "increaseAllowance",
      "outputs": [
        {
          "internalType": "bool",
          "name": "",
          "type": "bool"
        }
      ],
      "stateMutability": "nonpayable",
      "type": "function"
    },
    {
      "inputs": [
        {
          "internalType": "address",
          "name": "account",
          "type": "address"
        }
      ],
      "name": "isExcluded",
      "outputs": [
        {
          "internalType": "bool",
          "name": "",
          "type": "bool"
        }
      ],
      "stateMutability": "view",
      "type": "function",
      "constant": true
    },
    {
      "inputs": [],
      "name": "name",
      "outputs": [
        {
          "internalType": "string",
          "name": "",
          "type": "string"
        }
      ],
      "stateMutability": "view",
      "type": "function",
      "constant": true
    },
    {
      "inputs": [],
      "name": "owner",
      "outputs": [
        {
          "internalType": "address",
          "name": "",
          "type": "address"
        }
      ],
      "stateMutability": "view",
      "type": "function",
      "constant": true
    },
    {
      "inputs": [
        {
          "internalType": "uint256",
          "name": "tAmount",
          "type": "uint256"
        }
      ],
      "name": "reflect",
      "outputs": [],
      "stateMutability": "nonpayable",
      "type": "function"
    },
    {
      "inputs": [
        {
          "internalType": "uint256",
          "name": "tAmount",
          "type": "uint256"
        },
        {
          "internalType": "bool",
          "name": "deductTransferFee",
          "type": "bool"
        }
      ],
      "name": "reflectionFromToken",
      "outputs": [
        {
          "internalType": "uint256",
          "name": "",
          "type": "uint256"
        }
      ],
      "stateMutability": "view",
      "type": "function",
      "constant": true
    },
    {
      "inputs": [],
      "name": "renounceOwnership",
      "outputs": [],
      "stateMutability": "nonpayable",
      "type": "function"
    },
    {
      "inputs": [],
      "name": "symbol",
      "outputs": [
        {
          "internalType": "string",
          "name": "",
          "type": "string"
        }
      ],
      "stateMutability": "view",
      "type": "function",
      "constant": true
    },
    {
      "inputs": [
        {
          "internalType": "uint256",
          "name": "rAmount",
          "type": "uint256"
        }
      ],
      "name": "tokenFromReflection",
      "outputs": [
        {
          "internalType": "uint256",
          "name": "",
          "type": "uint256"
        }
      ],
      "stateMutability": "view",
      "type": "function",
      "constant": true
    },
    {
      "inputs": [],
      "name": "totalFees",
      "outputs": [
        {
          "internalType": "uint256",
          "name": "",
          "type": "uint256"
        }
      ],
      "stateMutability": "view",
      "type": "function",
      "constant": true
    },
    {
      "inputs": [],
      "name": "totalSupply",
      "outputs": [
        {
          "internalType": "uint256",
          "name": "",
          "type": "uint256"
        }
      ],
      "stateMutability": "view",
      "type": "function",
      "constant": true
    },
    {
      "inputs": [
        {
          "internalType": "address",
          "name": "recipient",
          "type": "address"
        },
        {
          "internalType": "uint256",
          "name": "amount",
          "type": "uint256"
        }
      ],
      "name": "transfer",
      "outputs": [
        {
          "internalType": "bool",
          "name": "",
          "type": "bool"
        }
      ],
      "stateMutability": "nonpayable",
      "type": "function"
    },
    {
      "inputs": [
        {
          "internalType": "address",
          "name": "sender",
          "type": "address"
        },
        {
          "internalType": "address",
          "name": "recipient",
          "type": "address"
        },
        {
          "internalType": "uint256",
          "name": "amount",
          "type": "uint256"
        }
      ],
      "name": "transferFrom",
      "outputs": [
        {
          "internalType": "bool",
          "name": "",
          "type": "bool"
        }
      ],
      "stateMutability": "nonpayable",
      "type": "function"
    },
    {
      "inputs": [
        {
          "internalType": "address",
          "name": "newOwner",
          "type": "address"
        }
      ],
      "name": "transferOwnership",
      "outputs": [],
      "stateMutability": "nonpayable",
      "type": "function"
    }
  ],
  "bytecode": "0x60a06040526009600060146101000a81548160ff021916908360ff1602179055503480156200002d57600080fd5b506040518060400160405280600481526020017f476f6c64000000000000000000000000000000000000000000000000000000008152506040518060400160405280600481526020017f474f4c4400000000000000000000000000000000000000000000000000000000815250662386f26fc100006000620000b4620002de60201b60201c565b9050806000806101000a81548173ffffffffffffffffffffffffffffffffffffffff021916908373ffffffffffffffffffffffffffffffffffffffff1602179055508073ffffffffffffffffffffffffffffffffffffffff16600073ffffffffffffffffffffffffffffffffffffffff167f8be0079c531659141344cd1fd0a4f28419497f9722a3daafe3b4186f6b6457e060405160405180910390a35082600190805190602001906200016a929190620002e6565b50816002908051906020019062000183929190620002e6565b508060808181525050806000196200019c91906200043f565b600019620001ab9190620003c4565b60038190555060035460056000620001c8620002de60201b60201c565b73ffffffffffffffffffffffffffffffffffffffff1673ffffffffffffffffffffffffffffffffffffffff168152602001908152602001600020819055506001600760008073ffffffffffffffffffffffffffffffffffffffff1673ffffffffffffffffffffffffffffffffffffffff16815260200190815260200160002060006101000a81548160ff0219169083151502179055506200026e620002de60201b60201c565b73ffffffffffffffffffffffffffffffffffffffff16600073ffffffffffffffffffffffffffffffffffffffff167fddf252ad1be2c89b69c2b068fc378daa952ba7f163c4a11628f55a4df523b3ef83604051620002cd9190620003a7565b60405180910390a350505062000504565b600033905090565b828054620002f49062000409565b90600052602060002090601f01602090048101928262000318576000855562000364565b82601f106200033357805160ff191683800117855562000364565b8280016001018555821562000364579182015b828111156200036357825182559160200191906001019062000346565b5b50905062000373919062000377565b5090565b5b808211156200039257600081600090555060010162000378565b5090565b620003a181620003ff565b82525050565b6000602082019050620003be600083018462000396565b92915050565b6000620003d182620003ff565b9150620003de83620003ff565b925082821015620003f457620003f362000477565b5b828203905092915050565b6000819050919050565b600060028204905060018216806200042257607f821691505b60208210811415620004395762000438620004d5565b5b50919050565b60006200044c82620003ff565b91506200045983620003ff565b9250826200046c576200046b620004a6565b5b828206905092915050565b7f4e487b7100000000000000000000000000000000000000000000000000000000600052601160045260246000fd5b7f4e487b7100000000000000000000000000000000000000000000000000000000600052601260045260246000fd5b7f4e487b7100000000000000000000000000000000000000000000000000000000600052602260045260246000fd5b6080516138a36200054360003960008181610682015281816108ba0152818161270b0152818161289901528181612a4d0152612a8901526138a36000f3fe608060405234801561001057600080fd5b50600436106101375760003560e01c806370a08231116100b8578063a9059cbb1161007c578063a9059cbb14610366578063cba0e99614610396578063dd62ed3e146103c6578063f2cc0c18146103f6578063f2fde38b14610412578063f84354f11461042e57610137565b806370a08231146102c0578063715018a6146102f05780638da5cb5b146102fa57806395d89b4114610318578063a457c2d71461033657610137565b806323b872dd116100ff57806323b872dd146101e25780632d83811914610212578063313ce5671461024257806339509351146102605780634549b0391461029057610137565b8063053ab1821461013c57806306fdde0314610158578063095ea7b31461017657806313114a9d146101a657806318160ddd146101c4575b600080fd5b61015660048036038101906101519190612dcd565b61044a565b005b6101606105c4565b60405161016d919061305e565b60405180910390f35b610190600480360381019061018b9190612d91565b610656565b60405161019d9190613043565b60405180910390f35b6101ae610674565b6040516101bb91906131e0565b60405180910390f35b6101cc61067e565b6040516101d991906131e0565b60405180910390f35b6101fc60048036038101906101f79190612d42565b6106a6565b6040516102099190613043565b60405180910390f35b61022c60048036038101906102279190612dcd565b61077f565b60405161023991906131e0565b60405180910390f35b61024a6107ed565b60405161025791906131fb565b60405180910390f35b61027a60048036038101906102759190612d91565b610803565b6040516102879190613043565b60405180910390f35b6102aa60048036038101906102a59190612df6565b6108b6565b6040516102b791906131e0565b60405180910390f35b6102da60048036038101906102d59190612cdd565b610956565b6040516102e791906131e0565b60405180910390f35b6102f8610a41565b005b610302610b7b565b60405161030f9190613028565b60405180910390f35b610320610ba4565b60405161032d919061305e565b60405180910390f35b610350600480360381019061034b9190612d91565b610c36565b60405161035d9190613043565b60405180910390f35b610380600480360381019061037b9190612d91565b610d03565b60405161038d9190613043565b60405180910390f35b6103b060048036038101906103ab9190612cdd565b610d21565b6040516103bd9190613043565b60405180910390f35b6103e060048036038101906103db9190612d06565b610d77565b6040516103ed91906131e0565b60405180910390f35b610410600480360381019061040b9190612cdd565b610dfe565b005b61042c60048036038101906104279190612cdd565b611099565b005b61044860048036038101906104439190612cdd565b611242565b005b6000610454611610565b9050600760008273ffffffffffffffffffffffffffffffffffffffff1673ffffffffffffffffffffffffffffffffffffffff16815260200190815260200160002060009054906101000a900460ff16156104e3576040517f08c379a00000000000000000000000000000000000000000000000000000000081526004016104da906131c0565b60405180910390fd5b60006104ee83611618565b50505050905061054681600560008573ffffffffffffffffffffffffffffffffffffffff1673ffffffffffffffffffffffffffffffffffffffff1681526020019081526020016000205461167090919063ffffffff16565b600560008473ffffffffffffffffffffffffffffffffffffffff1673ffffffffffffffffffffffffffffffffffffffff1681526020019081526020016000208190555061059e8160035461167090919063ffffffff16565b6003819055506105b98360045461168690919063ffffffff16565b600481905550505050565b6060600180546105d3906133cf565b80601f01602080910402602001604051908101604052809291908181526020018280546105ff906133cf565b801561064c5780601f106106215761010080835404028352916020019161064c565b820191906000526020600020905b81548152906001019060200180831161062f57829003601f168201915b5050505050905090565b600061066a610663611610565b848461169c565b6001905092915050565b6000600454905090565b60007f0000000000000000000000000000000000000000000000000000000000000000905090565b60006106b3848484611867565b610774846106bf611610565b61076f8560405180606001604052806028815260200161382160289139600860008b73ffffffffffffffffffffffffffffffffffffffff1673ffffffffffffffffffffffffffffffffffffffff1681526020019081526020016000206000610725611610565b73ffffffffffffffffffffffffffffffffffffffff1673ffffffffffffffffffffffffffffffffffffffff16815260200190815260200160002054611c7e9092919063ffffffff16565b61169c565b600190509392505050565b60006003548211156107c6576040517f08c379a00000000000000000000000000000000000000000000000000000000081526004016107bd906130a0565b60405180910390fd5b60006107d0611cd3565b90506107e58184611cfe90919063ffffffff16565b915050919050565b60008060149054906101000a900460ff16905090565b60006108ac610810611610565b846108a78560086000610821611610565b73ffffffffffffffffffffffffffffffffffffffff1673ffffffffffffffffffffffffffffffffffffffff16815260200190815260200160002060008973ffffffffffffffffffffffffffffffffffffffff1673ffffffffffffffffffffffffffffffffffffffff1681526020019081526020016000205461168690919063ffffffff16565b61169c565b6001905092915050565b60007f000000000000000000000000000000000000000000000000000000000000000083111561091b576040517f08c379a000000000000000000000000000000000000000000000000000000000815260040161091290613120565b60405180910390fd5b8161093a57600061092b84611618565b50505050905080915050610950565b600061094584611618565b505050915050809150505b92915050565b6000600760008373ffffffffffffffffffffffffffffffffffffffff1673ffffffffffffffffffffffffffffffffffffffff16815260200190815260200160002060009054906101000a900460ff16156109f157600660008373ffffffffffffffffffffffffffffffffffffffff1673ffffffffffffffffffffffffffffffffffffffff168152602001908152602001600020549050610a3c565b610a39600560008473ffffffffffffffffffffffffffffffffffffffff1673ffffffffffffffffffffffffffffffffffffffff1681526020019081526020016000205461077f565b90505b919050565b610a49611610565b73ffffffffffffffffffffffffffffffffffffffff16610a67610b7b565b73ffffffffffffffffffffffffffffffffffffffff1614610abd576040517f08c379a0000000000000000000000000000000000000000000000000000000008152600401610ab490613140565b60405180910390fd5b600073ffffffffffffffffffffffffffffffffffffffff1660008054906101000a900473ffffffffffffffffffffffffffffffffffffffff1673ffffffffffffffffffffffffffffffffffffffff167f8be0079c531659141344cd1fd0a4f28419497f9722a3daafe3b4186f6b6457e060405160405180910390a360008060006101000a81548173ffffffffffffffffffffffffffffffffffffffff021916908373ffffffffffffffffffffffffffffffffffffffff160217905550565b60008060009054906101000a900473ffffffffffffffffffffffffffffffffffffffff16905090565b606060028054610bb3906133cf565b80601f0160208091040260200160405190810160405280929190818152602001828054610bdf906133cf565b8015610c2c5780601f10610c0157610100808354040283529160200191610c2c565b820191906000526020600020905b815481529060010190602001808311610c0f57829003601f168201915b5050505050905090565b6000610cf9610c43611610565b84610cf4856040518060600160405280602581526020016138496025913960086000610c6d611610565b73ffffffffffffffffffffffffffffffffffffffff1673ffffffffffffffffffffffffffffffffffffffff16815260200190815260200160002060008a73ffffffffffffffffffffffffffffffffffffffff1673ffffffffffffffffffffffffffffffffffffffff16815260200190815260200160002054611c7e9092919063ffffffff16565b61169c565b6001905092915050565b6000610d17610d10611610565b8484611867565b6001905092915050565b6000600760008373ffffffffffffffffffffffffffffffffffffffff1673ffffffffffffffffffffffffffffffffffffffff16815260200190815260200160002060009054906101000a900460ff169050919050565b6000600860008473ffffffffffffffffffffffffffffffffffffffff1673ffffffffffffffffffffffffffffffffffffffff16815260200190815260200160002060008373ffffffffffffffffffffffffffffffffffffffff1673ffffffffffffffffffffffffffffffffffffffff16815260200190815260200160002054905092915050565b610e06611610565b73ffffffffffffffffffffffffffffffffffffffff16610e24610b7b565b73ffffffffffffffffffffffffffffffffffffffff1614610e7a576040517f08c379a0000000000000000000000000000000000000000000000000000000008152600401610e7190613140565b60405180910390fd5b600760008273ffffffffffffffffffffffffffffffffffffffff1673ffffffffffffffffffffffffffffffffffffffff16815260200190815260200160002060009054906101000a900460ff1615610f07576040517f08c379a0000000000000000000000000000000000000000000000000000000008152600401610efe90613100565b60405180910390fd5b6000600560008373ffffffffffffffffffffffffffffffffffffffff1673ffffffffffffffffffffffffffffffffffffffff168152602001908152602001600020541115610fdb57610f97600560008373ffffffffffffffffffffffffffffffffffffffff1673ffffffffffffffffffffffffffffffffffffffff1681526020019081526020016000205461077f565b600660008373ffffffffffffffffffffffffffffffffffffffff1673ffffffffffffffffffffffffffffffffffffffff168152602001908152602001600020819055505b6001600760008373ffffffffffffffffffffffffffffffffffffffff1673ffffffffffffffffffffffffffffffffffffffff16815260200190815260200160002060006101000a81548160ff0219169083151502179055506009819080600181540180825580915050600190039060005260206000200160009091909190916101000a81548173ffffffffffffffffffffffffffffffffffffffff021916908373ffffffffffffffffffffffffffffffffffffffff16021790555050565b6110a1611610565b73ffffffffffffffffffffffffffffffffffffffff166110bf610b7b565b73ffffffffffffffffffffffffffffffffffffffff1614611115576040517f08c379a000000000000000000000000000000000000000000000000000000000815260040161110c90613140565b60405180910390fd5b600073ffffffffffffffffffffffffffffffffffffffff168173ffffffffffffffffffffffffffffffffffffffff161415611185576040517f08c379a000000000000000000000000000000000000000000000000000000000815260040161117c906130c0565b60405180910390fd5b8073ffffffffffffffffffffffffffffffffffffffff1660008054906101000a900473ffffffffffffffffffffffffffffffffffffffff1673ffffffffffffffffffffffffffffffffffffffff167f8be0079c531659141344cd1fd0a4f28419497f9722a3daafe3b4186f6b6457e060405160405180910390a3806000806101000a81548173ffffffffffffffffffffffffffffffffffffffff021916908373ffffffffffffffffffffffffffffffffffffffff16021790555050565b61124a611610565b73ffffffffffffffffffffffffffffffffffffffff16611268610b7b565b73ffffffffffffffffffffffffffffffffffffffff16146112be576040517f08c379a00000000000000000000000000000000000000000000000000000000081526004016112b590613140565b60405180910390fd5b600760008273ffffffffffffffffffffffffffffffffffffffff1673ffffffffffffffffffffffffffffffffffffffff16815260200190815260200160002060009054906101000a900460ff1661134a576040517f08c379a000000000000000000000000000000000000000000000000000000000815260040161134190613100565b60405180910390fd5b60005b60098054905081101561160c578173ffffffffffffffffffffffffffffffffffffffff16600982815481106113ab577f4e487b7100000000000000000000000000000000000000000000000000000000600052603260045260246000fd5b9060005260206000200160009054906101000a900473ffffffffffffffffffffffffffffffffffffffff1673ffffffffffffffffffffffffffffffffffffffff1614156115f957600960016009805490506114069190613313565b8154811061143d577f4e487b7100000000000000000000000000000000000000000000000000000000600052603260045260246000fd5b9060005260206000200160009054906101000a900473ffffffffffffffffffffffffffffffffffffffff16600982815481106114a2577f4e487b7100000000000000000000000000000000000000000000000000000000600052603260045260246000fd5b9060005260206000200160006101000a81548173ffffffffffffffffffffffffffffffffffffffff021916908373ffffffffffffffffffffffffffffffffffffffff1602179055506000600660008473ffffffffffffffffffffffffffffffffffffffff1673ffffffffffffffffffffffffffffffffffffffff168152602001908152602001600020819055506000600760008473ffffffffffffffffffffffffffffffffffffffff1673ffffffffffffffffffffffffffffffffffffffff16815260200190815260200160002060006101000a81548160ff02191690831515021790555060098054806115bf577f4e487b7100000000000000000000000000000000000000000000000000000000600052603160045260246000fd5b6001900381819060005260206000200160006101000a81549073ffffffffffffffffffffffffffffffffffffffff0219169055905561160c565b808061160490613401565b91505061134d565b5050565b600033905090565b600080600080600080600061162c88611d14565b91509150600061163a611cd3565b9050600080600061164c8c8686611d53565b92509250925082828288889a509a509a509a509a5050505050505091939590929450565b6000818361167e9190613313565b905092915050565b600081836116949190613232565b905092915050565b600073ffffffffffffffffffffffffffffffffffffffff168373ffffffffffffffffffffffffffffffffffffffff16141561170c576040517f08c379a0000000000000000000000000000000000000000000000000000000008152600401611703906131a0565b60405180910390fd5b600073ffffffffffffffffffffffffffffffffffffffff168273ffffffffffffffffffffffffffffffffffffffff16141561177c576040517f08c379a0000000000000000000000000000000000000000000000000000000008152600401611773906130e0565b60405180910390fd5b80600860008573ffffffffffffffffffffffffffffffffffffffff1673ffffffffffffffffffffffffffffffffffffffff16815260200190815260200160002060008473ffffffffffffffffffffffffffffffffffffffff1673ffffffffffffffffffffffffffffffffffffffff168152602001908152602001600020819055508173ffffffffffffffffffffffffffffffffffffffff168373ffffffffffffffffffffffffffffffffffffffff167f8c5be1e5ebec7d5bd14f71427d1e84f3dd0314c0f7b2291e5b200ac8c7c3b9258360405161185a91906131e0565b60405180910390a3505050565b600073ffffffffffffffffffffffffffffffffffffffff168373ffffffffffffffffffffffffffffffffffffffff1614156118d7576040517f08c379a00000000000000000000000000000000000000000000000000000000081526004016118ce90613180565b60405180910390fd5b600073ffffffffffffffffffffffffffffffffffffffff168273ffffffffffffffffffffffffffffffffffffffff161415611947576040517f08c379a000000000000000000000000000000000000000000000000000000000815260040161193e90613080565b60405180910390fd5b6000811161198a576040517f08c379a000000000000000000000000000000000000000000000000000000000815260040161198190613160565b60405180910390fd5b600760008473ffffffffffffffffffffffffffffffffffffffff1673ffffffffffffffffffffffffffffffffffffffff16815260200190815260200160002060009054906101000a900460ff168015611a2d5750600760008373ffffffffffffffffffffffffffffffffffffffff1673ffffffffffffffffffffffffffffffffffffffff16815260200190815260200160002060009054906101000a900460ff16155b15611a4257611a3d838383611db1565b611c79565b600760008473ffffffffffffffffffffffffffffffffffffffff1673ffffffffffffffffffffffffffffffffffffffff16815260200190815260200160002060009054906101000a900460ff16158015611ae55750600760008373ffffffffffffffffffffffffffffffffffffffff1673ffffffffffffffffffffffffffffffffffffffff16815260200190815260200160002060009054906101000a900460ff165b15611afa57611af5838383612004565b611c78565b600760008473ffffffffffffffffffffffffffffffffffffffff1673ffffffffffffffffffffffffffffffffffffffff16815260200190815260200160002060009054906101000a900460ff16158015611b9e5750600760008373ffffffffffffffffffffffffffffffffffffffff1673ffffffffffffffffffffffffffffffffffffffff16815260200190815260200160002060009054906101000a900460ff16155b15611bb357611bae838383612257565b611c77565b600760008473ffffffffffffffffffffffffffffffffffffffff1673ffffffffffffffffffffffffffffffffffffffff16815260200190815260200160002060009054906101000a900460ff168015611c555750600760008373ffffffffffffffffffffffffffffffffffffffff1673ffffffffffffffffffffffffffffffffffffffff16815260200190815260200160002060009054906101000a900460ff165b15611c6a57611c65838383612415565b611c76565b611c75838383612257565b5b5b5b5b505050565b6000838311158290611cc6576040517f08c379a0000000000000000000000000000000000000000000000000000000008152600401611cbd919061305e565b60405180910390fd5b5082840390509392505050565b6000806000611ce06126fd565b91509150611cf78183611cfe90919063ffffffff16565b9250505090565b60008183611d0c9190613288565b905092915050565b6000806000611d2d601485611cfe90919063ffffffff16565b90506000611d44828661167090919063ffffffff16565b90508082935093505050915091565b600080600080611d6c8588612ac090919063ffffffff16565b90506000611d838688612ac090919063ffffffff16565b90506000611d9a828461167090919063ffffffff16565b905082818395509550955050505093509350939050565b6000806000806000611dc286611618565b94509450945094509450611e1e86600660008b73ffffffffffffffffffffffffffffffffffffffff1673ffffffffffffffffffffffffffffffffffffffff1681526020019081526020016000205461167090919063ffffffff16565b600660008a73ffffffffffffffffffffffffffffffffffffffff1673ffffffffffffffffffffffffffffffffffffffff16815260200190815260200160002081905550611eb385600560008b73ffffffffffffffffffffffffffffffffffffffff1673ffffffffffffffffffffffffffffffffffffffff1681526020019081526020016000205461167090919063ffffffff16565b600560008a73ffffffffffffffffffffffffffffffffffffffff1673ffffffffffffffffffffffffffffffffffffffff16815260200190815260200160002081905550611f4884600560008a73ffffffffffffffffffffffffffffffffffffffff1673ffffffffffffffffffffffffffffffffffffffff1681526020019081526020016000205461168690919063ffffffff16565b600560008973ffffffffffffffffffffffffffffffffffffffff1673ffffffffffffffffffffffffffffffffffffffff16815260200190815260200160002081905550611f958382612ad6565b8673ffffffffffffffffffffffffffffffffffffffff168873ffffffffffffffffffffffffffffffffffffffff167fddf252ad1be2c89b69c2b068fc378daa952ba7f163c4a11628f55a4df523b3ef84604051611ff291906131e0565b60405180910390a35050505050505050565b600080600080600061201586611618565b9450945094509450945061207185600560008b73ffffffffffffffffffffffffffffffffffffffff1673ffffffffffffffffffffffffffffffffffffffff1681526020019081526020016000205461167090919063ffffffff16565b600560008a73ffffffffffffffffffffffffffffffffffffffff1673ffffffffffffffffffffffffffffffffffffffff1681526020019081526020016000208190555061210682600660008a73ffffffffffffffffffffffffffffffffffffffff1673ffffffffffffffffffffffffffffffffffffffff1681526020019081526020016000205461168690919063ffffffff16565b600660008973ffffffffffffffffffffffffffffffffffffffff1673ffffffffffffffffffffffffffffffffffffffff1681526020019081526020016000208190555061219b84600560008a73ffffffffffffffffffffffffffffffffffffffff1673ffffffffffffffffffffffffffffffffffffffff1681526020019081526020016000205461168690919063ffffffff16565b600560008973ffffffffffffffffffffffffffffffffffffffff1673ffffffffffffffffffffffffffffffffffffffff168152602001908152602001600020819055506121e88382612ad6565b8673ffffffffffffffffffffffffffffffffffffffff168873ffffffffffffffffffffffffffffffffffffffff167fddf252ad1be2c89b69c2b068fc378daa952ba7f163c4a11628f55a4df523b3ef8460405161224591906131e0565b60405180910390a35050505050505050565b600080600080600061226886611618565b945094509450945094506122c485600560008b73ffffffffffffffffffffffffffffffffffffffff1673ffffffffffffffffffffffffffffffffffffffff1681526020019081526020016000205461167090919063ffffffff16565b600560008a73ffffffffffffffffffffffffffffffffffffffff1673ffffffffffffffffffffffffffffffffffffffff1681526020019081526020016000208190555061235984600560008a73ffffffffffffffffffffffffffffffffffffffff1673ffffffffffffffffffffffffffffffffffffffff1681526020019081526020016000205461168690919063ffffffff16565b600560008973ffffffffffffffffffffffffffffffffffffffff1673ffffffffffffffffffffffffffffffffffffffff168152602001908152602001600020819055506123a68382612ad6565b8673ffffffffffffffffffffffffffffffffffffffff168873ffffffffffffffffffffffffffffffffffffffff167fddf252ad1be2c89b69c2b068fc378daa952ba7f163c4a11628f55a4df523b3ef8460405161240391906131e0565b60405180910390a35050505050505050565b600080600080600061242686611618565b9450945094509450945061248286600660008b73ffffffffffffffffffffffffffffffffffffffff1673ffffffffffffffffffffffffffffffffffffffff1681526020019081526020016000205461167090919063ffffffff16565b600660008a73ffffffffffffffffffffffffffffffffffffffff1673ffffffffffffffffffffffffffffffffffffffff1681526020019081526020016000208190555061251785600560008b73ffffffffffffffffffffffffffffffffffffffff1673ffffffffffffffffffffffffffffffffffffffff1681526020019081526020016000205461167090919063ffffffff16565b600560008a73ffffffffffffffffffffffffffffffffffffffff1673ffffffffffffffffffffffffffffffffffffffff168152602001908152602001600020819055506125ac82600660008a73ffffffffffffffffffffffffffffffffffffffff1673ffffffffffffffffffffffffffffffffffffffff1681526020019081526020016000205461168690919063ffffffff16565b600660008973ffffffffffffffffffffffffffffffffffffffff1673ffffffffffffffffffffffffffffffffffffffff1681526020019081526020016000208190555061264184600560008a73ffffffffffffffffffffffffffffffffffffffff1673ffffffffffffffffffffffffffffffffffffffff1681526020019081526020016000205461168690919063ffffffff16565b600560008973ffffffffffffffffffffffffffffffffffffffff1673ffffffffffffffffffffffffffffffffffffffff1681526020019081526020016000208190555061268e8382612ad6565b8673ffffffffffffffffffffffffffffffffffffffff168873ffffffffffffffffffffffffffffffffffffffff167fddf252ad1be2c89b69c2b068fc378daa952ba7f163c4a11628f55a4df523b3ef846040516126eb91906131e0565b60405180910390a35050505050505050565b6000806000600354905060007f0000000000000000000000000000000000000000000000000000000000000000905060005b600980549050811015612a475782600560006009848154811061277b577f4e487b7100000000000000000000000000000000000000000000000000000000600052603260045260246000fd5b9060005260206000200160009054906101000a900473ffffffffffffffffffffffffffffffffffffffff1673ffffffffffffffffffffffffffffffffffffffff1673ffffffffffffffffffffffffffffffffffffffff16815260200190815260200160002054118061288f5750816006600060098481548110612827577f4e487b7100000000000000000000000000000000000000000000000000000000600052603260045260246000fd5b9060005260206000200160009054906101000a900473ffffffffffffffffffffffffffffffffffffffff1673ffffffffffffffffffffffffffffffffffffffff1673ffffffffffffffffffffffffffffffffffffffff16815260200190815260200160002054115b156128c4576003547f000000000000000000000000000000000000000000000000000000000000000094509450505050612abc565b61297a6005600060098481548110612905577f4e487b7100000000000000000000000000000000000000000000000000000000600052603260045260246000fd5b9060005260206000200160009054906101000a900473ffffffffffffffffffffffffffffffffffffffff1673ffffffffffffffffffffffffffffffffffffffff1673ffffffffffffffffffffffffffffffffffffffff168152602001908152602001600020548461167090919063ffffffff16565b9250612a3260066000600984815481106129bd577f4e487b7100000000000000000000000000000000000000000000000000000000600052603260045260246000fd5b9060005260206000200160009054906101000a900473ffffffffffffffffffffffffffffffffffffffff1673ffffffffffffffffffffffffffffffffffffffff1673ffffffffffffffffffffffffffffffffffffffff168152602001908152602001600020548361167090919063ffffffff16565b91508080612a3f90613401565b91505061272f565b50612a7d7f0000000000000000000000000000000000000000000000000000000000000000600354611cfe90919063ffffffff16565b821015612ab3576003547f0000000000000000000000000000000000000000000000000000000000000000935093505050612abc565b81819350935050505b9091565b60008183612ace91906132b9565b905092915050565b6000612aec600584611cfe90919063ffffffff16565b90506000612b04600584611cfe90919063ffffffff16565b9050612b6a612b1c838661167090919063ffffffff16565b600560008073ffffffffffffffffffffffffffffffffffffffff1673ffffffffffffffffffffffffffffffffffffffff1681526020019081526020016000205461168690919063ffffffff16565b600560008073ffffffffffffffffffffffffffffffffffffffff1673ffffffffffffffffffffffffffffffffffffffff16815260200190815260200160002081905550612c11612bc3828561167090919063ffffffff16565b600660008073ffffffffffffffffffffffffffffffffffffffff1673ffffffffffffffffffffffffffffffffffffffff1681526020019081526020016000205461168690919063ffffffff16565b600660008073ffffffffffffffffffffffffffffffffffffffff1673ffffffffffffffffffffffffffffffffffffffff16815260200190815260200160002081905550612c5e8282612c64565b50505050565b612c798260035461167090919063ffffffff16565b600381905550612c948160045461168690919063ffffffff16565b6004819055505050565b600081359050612cad816137db565b92915050565b600081359050612cc2816137f2565b92915050565b600081359050612cd781613809565b92915050565b600060208284031215612cef57600080fd5b6000612cfd84828501612c9e565b91505092915050565b60008060408385031215612d1957600080fd5b6000612d2785828601612c9e565b9250506020612d3885828601612c9e565b9150509250929050565b600080600060608486031215612d5757600080fd5b6000612d6586828701612c9e565b9350506020612d7686828701612c9e565b9250506040612d8786828701612cc8565b9150509250925092565b60008060408385031215612da457600080fd5b6000612db285828601612c9e565b9250506020612dc385828601612cc8565b9150509250929050565b600060208284031215612ddf57600080fd5b6000612ded84828501612cc8565b91505092915050565b60008060408385031215612e0957600080fd5b6000612e1785828601612cc8565b9250506020612e2885828601612cb3565b9150509250929050565b612e3b81613347565b82525050565b612e4a81613359565b82525050565b6000612e5b82613216565b612e658185613221565b9350612e7581856020860161339c565b612e7e816134d7565b840191505092915050565b6000612e96602383613221565b9150612ea1826134e8565b604082019050919050565b6000612eb9602a83613221565b9150612ec482613537565b604082019050919050565b6000612edc602683613221565b9150612ee782613586565b604082019050919050565b6000612eff602283613221565b9150612f0a826135d5565b604082019050919050565b6000612f22601b83613221565b9150612f2d82613624565b602082019050919050565b6000612f45601f83613221565b9150612f508261364d565b602082019050919050565b6000612f68602083613221565b9150612f7382613676565b602082019050919050565b6000612f8b602983613221565b9150612f968261369f565b604082019050919050565b6000612fae602583613221565b9150612fb9826136ee565b604082019050919050565b6000612fd1602483613221565b9150612fdc8261373d565b604082019050919050565b6000612ff4602c83613221565b9150612fff8261378c565b604082019050919050565b61301381613385565b82525050565b6130228161338f565b82525050565b600060208201905061303d6000830184612e32565b92915050565b60006020820190506130586000830184612e41565b92915050565b600060208201905081810360008301526130788184612e50565b905092915050565b6000602082019050818103600083015261309981612e89565b9050919050565b600060208201905081810360008301526130b981612eac565b9050919050565b600060208201905081810360008301526130d981612ecf565b9050919050565b600060208201905081810360008301526130f981612ef2565b9050919050565b6000602082019050818103600083015261311981612f15565b9050919050565b6000602082019050818103600083015261313981612f38565b9050919050565b6000602082019050818103600083015261315981612f5b565b9050919050565b6000602082019050818103600083015261317981612f7e565b9050919050565b6000602082019050818103600083015261319981612fa1565b9050919050565b600060208201905081810360008301526131b981612fc4565b9050919050565b600060208201905081810360008301526131d981612fe7565b9050919050565b60006020820190506131f5600083018461300a565b92915050565b60006020820190506132106000830184613019565b92915050565b600081519050919050565b600082825260208201905092915050565b600061323d82613385565b915061324883613385565b9250827fffffffffffffffffffffffffffffffffffffffffffffffffffffffffffffffff0382111561327d5761327c61344a565b5b828201905092915050565b600061329382613385565b915061329e83613385565b9250826132ae576132ad613479565b5b828204905092915050565b60006132c482613385565b91506132cf83613385565b9250817fffffffffffffffffffffffffffffffffffffffffffffffffffffffffffffffff04831182151516156133085761330761344a565b5b828202905092915050565b600061331e82613385565b915061332983613385565b92508282101561333c5761333b61344a565b5b828203905092915050565b600061335282613365565b9050919050565b60008115159050919050565b600073ffffffffffffffffffffffffffffffffffffffff82169050919050565b6000819050919050565b600060ff82169050919050565b60005b838110156133ba57808201518184015260208101905061339f565b838111156133c9576000848401525b50505050565b600060028204905060018216806133e757607f821691505b602082108114156133fb576133fa6134a8565b5b50919050565b600061340c82613385565b91507fffffffffffffffffffffffffffffffffffffffffffffffffffffffffffffffff82141561343f5761343e61344a565b5b600182019050919050565b7f4e487b7100000000000000000000000000000000000000000000000000000000600052601160045260246000fd5b7f4e487b7100000000000000000000000000000000000000000000000000000000600052601260045260246000fd5b7f4e487b7100000000000000000000000000000000000000000000000000000000600052602260045260246000fd5b6000601f19601f8301169050919050565b7f45524332303a207472616e7366657220746f20746865207a65726f206164647260008201527f6573730000000000000000000000000000000000000000000000000000000000602082015250565b7f416d6f756e74206d757374206265206c657373207468616e20746f74616c207260008201527f65666c656374696f6e7300000000000000000000000000000000000000000000602082015250565b7f4f776e61626c653a206e6577206f776e657220697320746865207a65726f206160008201527f6464726573730000000000000000000000000000000000000000000000000000602082015250565b7f45524332303a20617070726f766520746f20746865207a65726f20616464726560008201527f7373000000000000000000000000000000000000000000000000000000000000602082015250565b7f4163636f756e7420697320616c7265616479206578636c756465640000000000600082015250565b7f416d6f756e74206d757374206265206c657373207468616e20737570706c7900600082015250565b7f4f776e61626c653a2063616c6c6572206973206e6f7420746865206f776e6572600082015250565b7f5472616e7366657220616d6f756e74206d75737420626520677265617465722060008201527f7468616e207a65726f0000000000000000000000000000000000000000000000602082015250565b7f45524332303a207472616e736665722066726f6d20746865207a65726f20616460008201527f6472657373000000000000000000000000000000000000000000000000000000602082015250565b7f45524332303a20617070726f76652066726f6d20746865207a65726f2061646460008201527f7265737300000000000000000000000000000000000000000000000000000000602082015250565b7f4578636c75646564206164647265737365732063616e6e6f742063616c6c207460008201527f6869732066756e6374696f6e0000000000000000000000000000000000000000602082015250565b6137e481613347565b81146137ef57600080fd5b50565b6137fb81613359565b811461380657600080fd5b50565b61381281613385565b811461381d57600080fd5b5056fe45524332303a207472616e7366657220616d6f756e74206578636565647320616c6c6f77616e636545524332303a2064656372656173656420616c6c6f77616e63652062656c6f77207a65726fa264697066735822122025c3b6b8d242589663f2c49e3d95da62fa76d7bde738c167c781520b0886e6d064736f6c63430008040033",
  "immutableReferences": {
    "319": [
      {
        "length": 32,
        "start": 1666
      },
      {
        "length": 32,
        "start": 2234
      },
      {
        "length": 32,
        "start": 9995
      },
      {
        "length": 32,
        "start": 10393
      },
      {
        "length": 32,
        "start": 10829
      },
      {
        "length": 32,
        "start": 10889
      }
    ]
  },
  "source": "// SPDX-License-Identifier: MIT\npragma solidity 0.8.4;\n\nimport './Base.sol';\n\ncontract GOLD is Base('Gold', 'GOLD', 10 * 10**6 * 10**9) {\n    using SafeMath for uint256;\n\n    function _transferStandard(\n        address sender,\n        address recipient,\n        uint256 tAmount\n    ) internal override {\n        (\n            uint256 rAmount,\n            uint256 rTransferAmount,\n            uint256 rFee,\n            uint256 tTransferAmount,\n            uint256 tFee\n        ) = _getValues(tAmount);\n        _rOwned[sender] = _rOwned[sender].sub(rAmount);\n        _rOwned[recipient] = _rOwned[recipient].add(rTransferAmount);\n\n        _burnAndReflectFees(rFee, tFee);\n\n        emit Transfer(sender, recipient, tTransferAmount);\n    }\n\n    function _transferToExcluded(\n        address sender,\n        address recipient,\n        uint256 tAmount\n    ) internal override {\n        (\n            uint256 rAmount,\n            uint256 rTransferAmount,\n            uint256 rFee,\n            uint256 tTransferAmount,\n            uint256 tFee\n        ) = _getValues(tAmount);\n        _rOwned[sender] = _rOwned[sender].sub(rAmount);\n        _tOwned[recipient] = _tOwned[recipient].add(tTransferAmount);\n        _rOwned[recipient] = _rOwned[recipient].add(rTransferAmount);\n\n        _burnAndReflectFees(rFee, tFee);\n\n        emit Transfer(sender, recipient, tTransferAmount);\n    }\n\n    function _transferFromExcluded(\n        address sender,\n        address recipient,\n        uint256 tAmount\n    ) internal override {\n        (\n            uint256 rAmount,\n            uint256 rTransferAmount,\n            uint256 rFee,\n            uint256 tTransferAmount,\n            uint256 tFee\n        ) = _getValues(tAmount);\n        _tOwned[sender] = _tOwned[sender].sub(tAmount);\n        _rOwned[sender] = _rOwned[sender].sub(rAmount);\n        _rOwned[recipient] = _rOwned[recipient].add(rTransferAmount);\n\n        _burnAndReflectFees(rFee, tFee);\n\n        emit Transfer(sender, recipient, tTransferAmount);\n    }\n\n    function _transferBothExcluded(\n        address sender,\n        address recipient,\n        uint256 tAmount\n    ) internal override {\n        (\n            uint256 rAmount,\n            uint256 rTransferAmount,\n            uint256 rFee,\n            uint256 tTransferAmount,\n            uint256 tFee\n        ) = _getValues(tAmount);\n        _tOwned[sender] = _tOwned[sender].sub(tAmount);\n        _rOwned[sender] = _rOwned[sender].sub(rAmount);\n        _tOwned[recipient] = _tOwned[recipient].add(tTransferAmount);\n        _rOwned[recipient] = _rOwned[recipient].add(rTransferAmount);\n\n        _burnAndReflectFees(rFee, tFee);\n\n        emit Transfer(sender, recipient, tTransferAmount);\n    }\n\n    function _burnAndReflectFees(uint256 rFee, uint256 tFee) private {\n        uint256 rFeeRedistributed = rFee.div(5);\n        uint256 tFeeRedistributed = tFee.div(5);\n\n        _rOwned[address(0)] = _rOwned[address(0)].add(\n            rFee.sub(rFeeRedistributed)\n        );\n        _tOwned[address(0)] = _tOwned[address(0)].add(\n            tFee.sub(tFeeRedistributed)\n        );\n\n        _reflectFee(rFeeRedistributed, tFeeRedistributed);\n    }\n}\n",
  "sourcePath": "/Users/maximedupre/Desktop/programming/maximedupre/ARK/contracts/GOLD.sol",
  "compiler": {
    "name": "solc",
    "version": "0.8.4+commit.c7e474f2.Emscripten.clang"
  },
  "schemaVersion": "3.4.0",
  "updatedAt": "2021-05-03T20:58:20.711Z",
  "networkType": "ethereum",
  "devdoc": {
    "kind": "dev",
    "methods": {
      "allowance(address,address)": {
        "details": "Returns the remaining number of tokens that `spender` will be allowed to spend on behalf of `owner` through {transferFrom}. This is zero by default. This value changes when {approve} or {transferFrom} are called."
      },
      "approve(address,uint256)": {
        "details": "Sets `amount` as the allowance of `spender` over the caller's tokens. Returns a boolean value indicating whether the operation succeeded. IMPORTANT: Beware that changing an allowance with this method brings the risk that someone may use both the old and the new allowance by unfortunate transaction ordering. One possible solution to mitigate this race condition is to first reduce the spender's allowance to 0 and set the desired value afterwards: https://github.com/ethereum/EIPs/issues/20#issuecomment-263524729 Emits an {Approval} event."
      },
      "balanceOf(address)": {
        "details": "Returns the amount of tokens owned by `account`."
      },
      "owner()": {
        "details": "Returns the address of the current owner."
      },
      "renounceOwnership()": {
        "details": "Leaves the contract without owner. It will not be possible to call `onlyOwner` functions anymore. Can only be called by the current owner. NOTE: Renouncing ownership will leave the contract without an owner, thereby removing any functionality that is only available to the owner."
      },
      "totalSupply()": {
        "details": "Returns the amount of tokens in existence."
      },
      "transfer(address,uint256)": {
        "details": "Moves `amount` tokens from the caller's account to `recipient`. Returns a boolean value indicating whether the operation succeeded. Emits a {Transfer} event."
      },
      "transferFrom(address,address,uint256)": {
        "details": "Moves `amount` tokens from `sender` to `recipient` using the allowance mechanism. `amount` is then deducted from the caller's allowance. Returns a boolean value indicating whether the operation succeeded. Emits a {Transfer} event."
      },
      "transferOwnership(address)": {
        "details": "Transfers ownership of the contract to a new account (`newOwner`). Can only be called by the current owner."
      }
    },
    "version": 1
  },
  "userdoc": {
    "kind": "user",
    "methods": {},
    "version": 1
  }
}