{
  "contractName": "REFLECTCustom",
  "abi": [
    {
      "inputs": [],
      "stateMutability": "nonpayable",
      "type": "constructor"
    },
    {
      "anonymous": false,
      "inputs": [
        {
          "indexed": true,
          "internalType": "address",
          "name": "owner",
          "type": "address"
        },
        {
          "indexed": true,
          "internalType": "address",
          "name": "spender",
          "type": "address"
        },
        {
          "indexed": false,
          "internalType": "uint256",
          "name": "value",
          "type": "uint256"
        }
      ],
      "name": "Approval",
      "type": "event"
    },
    {
      "anonymous": false,
      "inputs": [
        {
          "indexed": true,
          "internalType": "address",
          "name": "previousOwner",
          "type": "address"
        },
        {
          "indexed": true,
          "internalType": "address",
          "name": "newOwner",
          "type": "address"
        }
      ],
      "name": "OwnershipTransferred",
      "type": "event"
    },
    {
      "anonymous": false,
      "inputs": [
        {
          "indexed": true,
          "internalType": "address",
          "name": "from",
          "type": "address"
        },
        {
          "indexed": true,
          "internalType": "address",
          "name": "to",
          "type": "address"
        },
        {
          "indexed": false,
          "internalType": "uint256",
          "name": "value",
          "type": "uint256"
        }
      ],
      "name": "Transfer",
      "type": "event"
    },
    {
      "inputs": [],
      "name": "MAX",
      "outputs": [
        {
          "internalType": "uint256",
          "name": "",
          "type": "uint256"
        }
      ],
      "stateMutability": "view",
      "type": "function",
      "constant": true
    },
    {
      "inputs": [],
      "name": "MAXmod",
      "outputs": [
        {
          "internalType": "uint256",
          "name": "",
          "type": "uint256"
        }
      ],
      "stateMutability": "view",
      "type": "function",
      "constant": true
    },
    {
      "inputs": [
        {
          "internalType": "address",
          "name": "",
          "type": "address"
        }
      ],
      "name": "_reflectionsOwned",
      "outputs": [
        {
          "internalType": "uint256",
          "name": "",
          "type": "uint256"
        }
      ],
      "stateMutability": "view",
      "type": "function",
      "constant": true
    },
    {
      "inputs": [],
      "name": "_tokensFeeTotal",
      "outputs": [
        {
          "internalType": "uint256",
          "name": "",
          "type": "uint256"
        }
      ],
      "stateMutability": "view",
      "type": "function",
      "constant": true
    },
    {
      "inputs": [
        {
          "internalType": "address",
          "name": "",
          "type": "address"
        }
      ],
      "name": "_tokensOwned",
      "outputs": [
        {
          "internalType": "uint256",
          "name": "",
          "type": "uint256"
        }
      ],
      "stateMutability": "view",
      "type": "function",
      "constant": true
    },
    {
      "inputs": [],
      "name": "_totalReflections",
      "outputs": [
        {
          "internalType": "uint256",
          "name": "",
          "type": "uint256"
        }
      ],
      "stateMutability": "view",
      "type": "function",
      "constant": true
    },
    {
      "inputs": [],
      "name": "_totalSupplyOfToken",
      "outputs": [
        {
          "internalType": "uint256",
          "name": "",
          "type": "uint256"
        }
      ],
      "stateMutability": "view",
      "type": "function",
      "constant": true
    },
    {
      "inputs": [],
      "name": "owner",
      "outputs": [
        {
          "internalType": "address",
          "name": "",
          "type": "address"
        }
      ],
      "stateMutability": "view",
      "type": "function",
      "constant": true
    },
    {
      "inputs": [],
      "name": "renounceOwnership",
      "outputs": [],
      "stateMutability": "nonpayable",
      "type": "function"
    },
    {
      "inputs": [
        {
          "internalType": "address",
          "name": "newOwner",
          "type": "address"
        }
      ],
      "name": "transferOwnership",
      "outputs": [],
      "stateMutability": "nonpayable",
      "type": "function"
    },
    {
      "inputs": [],
      "name": "name",
      "outputs": [
        {
          "internalType": "string",
          "name": "",
          "type": "string"
        }
      ],
      "stateMutability": "view",
      "type": "function",
      "constant": true
    },
    {
      "inputs": [],
      "name": "symbol",
      "outputs": [
        {
          "internalType": "string",
          "name": "",
          "type": "string"
        }
      ],
      "stateMutability": "view",
      "type": "function",
      "constant": true
    },
    {
      "inputs": [],
      "name": "decimals",
      "outputs": [
        {
          "internalType": "uint8",
          "name": "",
          "type": "uint8"
        }
      ],
      "stateMutability": "view",
      "type": "function",
      "constant": true
    },
    {
      "inputs": [],
      "name": "totalSupply",
      "outputs": [
        {
          "internalType": "uint256",
          "name": "",
          "type": "uint256"
        }
      ],
      "stateMutability": "view",
      "type": "function",
      "constant": true
    },
    {
      "inputs": [
        {
          "internalType": "address",
          "name": "account",
          "type": "address"
        }
      ],
      "name": "balanceOf",
      "outputs": [
        {
          "internalType": "uint256",
          "name": "",
          "type": "uint256"
        }
      ],
      "stateMutability": "view",
      "type": "function",
      "constant": true
    },
    {
      "inputs": [
        {
          "internalType": "uint256",
          "name": "reflectionAmount",
          "type": "uint256"
        }
      ],
      "name": "tokenFromReflection",
      "outputs": [
        {
          "internalType": "uint256",
          "name": "",
          "type": "uint256"
        }
      ],
      "stateMutability": "view",
      "type": "function",
      "constant": true
    },
    {
      "inputs": [],
      "name": "_getRate",
      "outputs": [
        {
          "internalType": "uint256",
          "name": "",
          "type": "uint256"
        }
      ],
      "stateMutability": "view",
      "type": "function",
      "constant": true
    },
    {
      "inputs": [
        {
          "internalType": "address",
          "name": "recipient",
          "type": "address"
        },
        {
          "internalType": "uint256",
          "name": "amount",
          "type": "uint256"
        }
      ],
      "name": "transfer",
      "outputs": [
        {
          "internalType": "bool",
          "name": "",
          "type": "bool"
        }
      ],
      "stateMutability": "nonpayable",
      "type": "function"
    },
    {
      "inputs": [
        {
          "internalType": "address",
          "name": "owner",
          "type": "address"
        },
        {
          "internalType": "address",
          "name": "spender",
          "type": "address"
        }
      ],
      "name": "allowance",
      "outputs": [
        {
          "internalType": "uint256",
          "name": "",
          "type": "uint256"
        }
      ],
      "stateMutability": "view",
      "type": "function",
      "constant": true
    },
    {
      "inputs": [
        {
          "internalType": "address",
          "name": "spender",
          "type": "address"
        },
        {
          "internalType": "uint256",
          "name": "amount",
          "type": "uint256"
        }
      ],
      "name": "approve",
      "outputs": [
        {
          "internalType": "bool",
          "name": "",
          "type": "bool"
        }
      ],
      "stateMutability": "nonpayable",
      "type": "function"
    },
    {
      "inputs": [
        {
          "internalType": "address",
          "name": "sender",
          "type": "address"
        },
        {
          "internalType": "address",
          "name": "recipient",
          "type": "address"
        },
        {
          "internalType": "uint256",
          "name": "amount",
          "type": "uint256"
        }
      ],
      "name": "transferFrom",
      "outputs": [
        {
          "internalType": "bool",
          "name": "",
          "type": "bool"
        }
      ],
      "stateMutability": "nonpayable",
      "type": "function"
    },
    {
      "inputs": [
        {
          "internalType": "address",
          "name": "spender",
          "type": "address"
        },
        {
          "internalType": "uint256",
          "name": "addedValue",
          "type": "uint256"
        }
      ],
      "name": "increaseAllowance",
      "outputs": [
        {
          "internalType": "bool",
          "name": "",
          "type": "bool"
        }
      ],
      "stateMutability": "nonpayable",
      "type": "function"
    },
    {
      "inputs": [
        {
          "internalType": "address",
          "name": "spender",
          "type": "address"
        },
        {
          "internalType": "uint256",
          "name": "subtractedValue",
          "type": "uint256"
        }
      ],
      "name": "decreaseAllowance",
      "outputs": [
        {
          "internalType": "bool",
          "name": "",
          "type": "bool"
        }
      ],
      "stateMutability": "nonpayable",
      "type": "function"
    },
    {
      "inputs": [
        {
          "internalType": "address",
          "name": "account",
          "type": "address"
        }
      ],
      "name": "isExcluded",
      "outputs": [
        {
          "internalType": "bool",
          "name": "",
          "type": "bool"
        }
      ],
      "stateMutability": "view",
      "type": "function",
      "constant": true
    },
    {
      "inputs": [],
      "name": "totalFees",
      "outputs": [
        {
          "internalType": "uint256",
          "name": "",
          "type": "uint256"
        }
      ],
      "stateMutability": "view",
      "type": "function",
      "constant": true
    },
    {
      "inputs": [
        {
          "internalType": "uint256",
          "name": "tAmount",
          "type": "uint256"
        }
      ],
      "name": "reflect",
      "outputs": [],
      "stateMutability": "nonpayable",
      "type": "function"
    },
    {
      "inputs": [
        {
          "internalType": "uint256",
          "name": "tAmount",
          "type": "uint256"
        },
        {
          "internalType": "bool",
          "name": "deductTransferFee",
          "type": "bool"
        }
      ],
      "name": "reflectionFromToken",
      "outputs": [
        {
          "internalType": "uint256",
          "name": "",
          "type": "uint256"
        }
      ],
      "stateMutability": "view",
      "type": "function",
      "constant": true
    },
    {
      "inputs": [
        {
          "internalType": "address",
          "name": "account",
          "type": "address"
        }
      ],
      "name": "excludeAccount",
      "outputs": [],
      "stateMutability": "nonpayable",
      "type": "function"
    },
    {
      "inputs": [
        {
          "internalType": "address",
          "name": "account",
          "type": "address"
        }
      ],
      "name": "includeAccount",
      "outputs": [],
      "stateMutability": "nonpayable",
      "type": "function"
    }
  ],
  "bytecode": "0x6080604052662386f26fc100006000196200001b9190620003dd565b6000196200002a919062000362565b6006556040518060400160405280600f81526020017f7265666c6563742e66696e616e63650000000000000000000000000000000000815250600890805190602001906200007a92919062000284565b506040518060400160405280600381526020017f524649000000000000000000000000000000000000000000000000000000000081525060099080519060200190620000c892919062000284565b506009600a60006101000a81548160ff021916908360ff160217905550348015620000f257600080fd5b506000620001056200027c60201b60201c565b9050806000806101000a81548173ffffffffffffffffffffffffffffffffffffffff021916908373ffffffffffffffffffffffffffffffffffffffff1602179055508073ffffffffffffffffffffffffffffffffffffffff16600073ffffffffffffffffffffffffffffffffffffffff167f8be0079c531659141344cd1fd0a4f28419497f9722a3daafe3b4186f6b6457e060405160405180910390a35060065460016000620001ba6200027c60201b60201c565b73ffffffffffffffffffffffffffffffffffffffff1673ffffffffffffffffffffffffffffffffffffffff16815260200190815260200160002081905550620002086200027c60201b60201c565b73ffffffffffffffffffffffffffffffffffffffff16600073ffffffffffffffffffffffffffffffffffffffff167fddf252ad1be2c89b69c2b068fc378daa952ba7f163c4a11628f55a4df523b3ef662386f26fc100006040516200026e919062000345565b60405180910390a3620004a2565b600033905090565b8280546200029290620003a7565b90600052602060002090601f016020900481019282620002b6576000855562000302565b82601f10620002d157805160ff191683800117855562000302565b8280016001018555821562000302579182015b8281111562000301578251825591602001919060010190620002e4565b5b50905062000311919062000315565b5090565b5b808211156200033057600081600090555060010162000316565b5090565b6200033f816200039d565b82525050565b60006020820190506200035c600083018462000334565b92915050565b60006200036f826200039d565b91506200037c836200039d565b92508282101562000392576200039162000415565b5b828203905092915050565b6000819050919050565b60006002820490506001821680620003c057607f821691505b60208210811415620003d757620003d662000473565b5b50919050565b6000620003ea826200039d565b9150620003f7836200039d565b9250826200040a576200040962000444565b5b828206905092915050565b7f4e487b7100000000000000000000000000000000000000000000000000000000600052601160045260246000fd5b7f4e487b7100000000000000000000000000000000000000000000000000000000600052601260045260246000fd5b7f4e487b7100000000000000000000000000000000000000000000000000000000600052602260045260246000fd5b6138c280620004b26000396000f3fe608060405234801561001057600080fd5b50600436106101cf5760003560e01c8063612dc85811610104578063a8cab75f116100a2578063dd62ed3e11610071578063dd62ed3e14610572578063f2cc0c18146105a2578063f2fde38b146105be578063f84354f1146105da576101cf565b8063a8cab75f146104c4578063a9059cbb146104f4578063cba0e99614610524578063d49d518114610554576101cf565b80638da5cb5b116100de5780638da5cb5b1461043a57806394e107841461045857806395d89b4114610476578063a457c2d714610494576101cf565b8063612dc858146103e257806370a0823114610400578063715018a614610430576101cf565b80632f38ce24116101715780634549b0391161014b5780634549b039146103465780634d16e026146103765780635607ee02146103945780635855981f146103c4576101cf565b80632f38ce24146102da578063313ce567146102f85780633950935114610316576101cf565b806313114a9d116101ad57806313114a9d1461023e57806318160ddd1461025c57806323b872dd1461027a5780632d838119146102aa576101cf565b8063053ab182146101d457806306fdde03146101f0578063095ea7b31461020e575b600080fd5b6101ee60048036038101906101e99190612dbb565b6105f6565b005b6101f8610770565b604051610205919061304c565b60405180910390f35b61022860048036038101906102239190612d7f565b610802565b6040516102359190613031565b60405180910390f35b610246610820565b60405161025391906131ce565b60405180910390f35b61026461082a565b60405161027191906131ce565b60405180910390f35b610294600480360381019061028f9190612d30565b610839565b6040516102a19190613031565b60405180910390f35b6102c460048036038101906102bf9190612dbb565b610912565b6040516102d191906131ce565b60405180910390f35b6102e2610980565b6040516102ef91906131ce565b60405180910390f35b610300610998565b60405161030d91906131e9565b60405180910390f35b610330600480360381019061032b9190612d7f565b6109af565b60405161033d9190613031565b60405180910390f35b610360600480360381019061035b9190612de4565b610a62565b60405161036d91906131ce565b60405180910390f35b61037e610ae9565b60405161038b91906131ce565b60405180910390f35b6103ae60048036038101906103a99190612ccb565b610af4565b6040516103bb91906131ce565b60405180910390f35b6103cc610b0c565b6040516103d991906131ce565b60405180910390f35b6103ea610b12565b6040516103f791906131ce565b60405180910390f35b61041a60048036038101906104159190612ccb565b610b18565b60405161042791906131ce565b60405180910390f35b610438610c03565b005b610442610d3d565b60405161044f9190613016565b60405180910390f35b610460610d66565b60405161046d91906131ce565b60405180910390f35b61047e610d91565b60405161048b919061304c565b60405180910390f35b6104ae60048036038101906104a99190612d7f565b610e23565b6040516104bb9190613031565b60405180910390f35b6104de60048036038101906104d99190612ccb565b610ef0565b6040516104eb91906131ce565b60405180910390f35b61050e60048036038101906105099190612d7f565b610f08565b60405161051b9190613031565b60405180910390f35b61053e60048036038101906105399190612ccb565b610f26565b60405161054b9190613031565b60405180910390f35b61055c610f7c565b60405161056991906131ce565b60405180910390f35b61058c60048036038101906105879190612cf4565b610f82565b60405161059991906131ce565b60405180910390f35b6105bc60048036038101906105b79190612ccb565b611009565b005b6105d860048036038101906105d39190612ccb565b6112a4565b005b6105f460048036038101906105ef9190612ccb565b61144d565b005b600061060061181b565b9050600460008273ffffffffffffffffffffffffffffffffffffffff1673ffffffffffffffffffffffffffffffffffffffff16815260200190815260200160002060009054906101000a900460ff161561068f576040517f08c379a0000000000000000000000000000000000000000000000000000000008152600401610686906131ae565b60405180910390fd5b600061069a83611823565b5050505090506106f281600160008573ffffffffffffffffffffffffffffffffffffffff1673ffffffffffffffffffffffffffffffffffffffff1681526020019081526020016000205461187b90919063ffffffff16565b600160008473ffffffffffffffffffffffffffffffffffffffff1673ffffffffffffffffffffffffffffffffffffffff1681526020019081526020016000208190555061074a8160065461187b90919063ffffffff16565b6006819055506107658360075461189190919063ffffffff16565b600781905550505050565b60606008805461077f906133bd565b80601f01602080910402602001604051908101604052809291908181526020018280546107ab906133bd565b80156107f85780601f106107cd576101008083540402835291602001916107f8565b820191906000526020600020905b8154815290600101906020018083116107db57829003601f168201915b5050505050905090565b600061081661080f61181b565b84846118a7565b6001905092915050565b6000600754905090565b6000662386f26fc10000905090565b6000610846848484611a72565b6109078461085261181b565b6109028560405180606001604052806028815260200161384060289139600360008b73ffffffffffffffffffffffffffffffffffffffff1673ffffffffffffffffffffffffffffffffffffffff16815260200190815260200160002060006108b861181b565b73ffffffffffffffffffffffffffffffffffffffff1673ffffffffffffffffffffffffffffffffffffffff16815260200190815260200160002054611e899092919063ffffffff16565b6118a7565b600190509392505050565b6000600654821115610959576040517f08c379a00000000000000000000000000000000000000000000000000000000081526004016109509061308e565b60405180910390fd5b6000610963610d66565b90506109788184611ede90919063ffffffff16565b915050919050565b662386f26fc100006000196109959190613438565b81565b6000600a60009054906101000a900460ff16905090565b6000610a586109bc61181b565b84610a5385600360006109cd61181b565b73ffffffffffffffffffffffffffffffffffffffff1673ffffffffffffffffffffffffffffffffffffffff16815260200190815260200160002060008973ffffffffffffffffffffffffffffffffffffffff1673ffffffffffffffffffffffffffffffffffffffff1681526020019081526020016000205461189190919063ffffffff16565b6118a7565b6001905092915050565b6000662386f26fc10000831115610aae576040517f08c379a0000000000000000000000000000000000000000000000000000000008152600401610aa59061310e565b60405180910390fd5b81610acd576000610abe84611823565b50505050905080915050610ae3565b6000610ad884611823565b505050915050809150505b92915050565b662386f26fc1000081565b60026020528060005260406000206000915090505481565b60075481565b60065481565b6000600460008373ffffffffffffffffffffffffffffffffffffffff1673ffffffffffffffffffffffffffffffffffffffff16815260200190815260200160002060009054906101000a900460ff1615610bb357600260008373ffffffffffffffffffffffffffffffffffffffff1673ffffffffffffffffffffffffffffffffffffffff168152602001908152602001600020549050610bfe565b610bfb600160008473ffffffffffffffffffffffffffffffffffffffff1673ffffffffffffffffffffffffffffffffffffffff16815260200190815260200160002054610912565b90505b919050565b610c0b61181b565b73ffffffffffffffffffffffffffffffffffffffff16610c29610d3d565b73ffffffffffffffffffffffffffffffffffffffff1614610c7f576040517f08c379a0000000000000000000000000000000000000000000000000000000008152600401610c769061312e565b60405180910390fd5b600073ffffffffffffffffffffffffffffffffffffffff1660008054906101000a900473ffffffffffffffffffffffffffffffffffffffff1673ffffffffffffffffffffffffffffffffffffffff167f8be0079c531659141344cd1fd0a4f28419497f9722a3daafe3b4186f6b6457e060405160405180910390a360008060006101000a81548173ffffffffffffffffffffffffffffffffffffffff021916908373ffffffffffffffffffffffffffffffffffffffff160217905550565b60008060009054906101000a900473ffffffffffffffffffffffffffffffffffffffff16905090565b6000806000610d73611ef4565b91509150610d8a8183611ede90919063ffffffff16565b9250505090565b606060098054610da0906133bd565b80601f0160208091040260200160405190810160405280929190818152602001828054610dcc906133bd565b8015610e195780601f10610dee57610100808354040283529160200191610e19565b820191906000526020600020905b815481529060010190602001808311610dfc57829003601f168201915b5050505050905090565b6000610ee6610e3061181b565b84610ee1856040518060600160405280602581526020016138686025913960036000610e5a61181b565b73ffffffffffffffffffffffffffffffffffffffff1673ffffffffffffffffffffffffffffffffffffffff16815260200190815260200160002060008a73ffffffffffffffffffffffffffffffffffffffff1673ffffffffffffffffffffffffffffffffffffffff16815260200190815260200160002054611e899092919063ffffffff16565b6118a7565b6001905092915050565b60016020528060005260406000206000915090505481565b6000610f1c610f1561181b565b8484611a72565b6001905092915050565b6000600460008373ffffffffffffffffffffffffffffffffffffffff1673ffffffffffffffffffffffffffffffffffffffff16815260200190815260200160002060009054906101000a900460ff169050919050565b60001981565b6000600360008473ffffffffffffffffffffffffffffffffffffffff1673ffffffffffffffffffffffffffffffffffffffff16815260200190815260200160002060008373ffffffffffffffffffffffffffffffffffffffff1673ffffffffffffffffffffffffffffffffffffffff16815260200190815260200160002054905092915050565b61101161181b565b73ffffffffffffffffffffffffffffffffffffffff1661102f610d3d565b73ffffffffffffffffffffffffffffffffffffffff1614611085576040517f08c379a000000000000000000000000000000000000000000000000000000000815260040161107c9061312e565b60405180910390fd5b600460008273ffffffffffffffffffffffffffffffffffffffff1673ffffffffffffffffffffffffffffffffffffffff16815260200190815260200160002060009054906101000a900460ff1615611112576040517f08c379a0000000000000000000000000000000000000000000000000000000008152600401611109906130ee565b60405180910390fd5b6000600160008373ffffffffffffffffffffffffffffffffffffffff1673ffffffffffffffffffffffffffffffffffffffff1681526020019081526020016000205411156111e6576111a2600160008373ffffffffffffffffffffffffffffffffffffffff1673ffffffffffffffffffffffffffffffffffffffff16815260200190815260200160002054610912565b600260008373ffffffffffffffffffffffffffffffffffffffff1673ffffffffffffffffffffffffffffffffffffffff168152602001908152602001600020819055505b6001600460008373ffffffffffffffffffffffffffffffffffffffff1673ffffffffffffffffffffffffffffffffffffffff16815260200190815260200160002060006101000a81548160ff0219169083151502179055506005819080600181540180825580915050600190039060005260206000200160009091909190916101000a81548173ffffffffffffffffffffffffffffffffffffffff021916908373ffffffffffffffffffffffffffffffffffffffff16021790555050565b6112ac61181b565b73ffffffffffffffffffffffffffffffffffffffff166112ca610d3d565b73ffffffffffffffffffffffffffffffffffffffff1614611320576040517f08c379a00000000000000000000000000000000000000000000000000000000081526004016113179061312e565b60405180910390fd5b600073ffffffffffffffffffffffffffffffffffffffff168173ffffffffffffffffffffffffffffffffffffffff161415611390576040517f08c379a0000000000000000000000000000000000000000000000000000000008152600401611387906130ae565b60405180910390fd5b8073ffffffffffffffffffffffffffffffffffffffff1660008054906101000a900473ffffffffffffffffffffffffffffffffffffffff1673ffffffffffffffffffffffffffffffffffffffff167f8be0079c531659141344cd1fd0a4f28419497f9722a3daafe3b4186f6b6457e060405160405180910390a3806000806101000a81548173ffffffffffffffffffffffffffffffffffffffff021916908373ffffffffffffffffffffffffffffffffffffffff16021790555050565b61145561181b565b73ffffffffffffffffffffffffffffffffffffffff16611473610d3d565b73ffffffffffffffffffffffffffffffffffffffff16146114c9576040517f08c379a00000000000000000000000000000000000000000000000000000000081526004016114c09061312e565b60405180910390fd5b600460008273ffffffffffffffffffffffffffffffffffffffff1673ffffffffffffffffffffffffffffffffffffffff16815260200190815260200160002060009054906101000a900460ff16611555576040517f08c379a000000000000000000000000000000000000000000000000000000000815260040161154c906130ee565b60405180910390fd5b60005b600580549050811015611817578173ffffffffffffffffffffffffffffffffffffffff16600582815481106115b6577f4e487b7100000000000000000000000000000000000000000000000000000000600052603260045260246000fd5b9060005260206000200160009054906101000a900473ffffffffffffffffffffffffffffffffffffffff1673ffffffffffffffffffffffffffffffffffffffff16141561180457600560016005805490506116119190613301565b81548110611648577f4e487b7100000000000000000000000000000000000000000000000000000000600052603260045260246000fd5b9060005260206000200160009054906101000a900473ffffffffffffffffffffffffffffffffffffffff16600582815481106116ad577f4e487b7100000000000000000000000000000000000000000000000000000000600052603260045260246000fd5b9060005260206000200160006101000a81548173ffffffffffffffffffffffffffffffffffffffff021916908373ffffffffffffffffffffffffffffffffffffffff1602179055506000600260008473ffffffffffffffffffffffffffffffffffffffff1673ffffffffffffffffffffffffffffffffffffffff168152602001908152602001600020819055506000600460008473ffffffffffffffffffffffffffffffffffffffff1673ffffffffffffffffffffffffffffffffffffffff16815260200190815260200160002060006101000a81548160ff02191690831515021790555060058054806117ca577f4e487b7100000000000000000000000000000000000000000000000000000000600052603160045260246000fd5b6001900381819060005260206000200160006101000a81549073ffffffffffffffffffffffffffffffffffffffff02191690559055611817565b808061180f906133ef565b915050611558565b5050565b600033905090565b600080600080600080600061183788612253565b915091506000611845610d66565b905060008060006118578c8686612292565b92509250925082828288889a509a509a509a509a5050505050505091939590929450565b600081836118899190613301565b905092915050565b6000818361189f9190613220565b905092915050565b600073ffffffffffffffffffffffffffffffffffffffff168373ffffffffffffffffffffffffffffffffffffffff161415611917576040517f08c379a000000000000000000000000000000000000000000000000000000000815260040161190e9061318e565b60405180910390fd5b600073ffffffffffffffffffffffffffffffffffffffff168273ffffffffffffffffffffffffffffffffffffffff161415611987576040517f08c379a000000000000000000000000000000000000000000000000000000000815260040161197e906130ce565b60405180910390fd5b80600360008573ffffffffffffffffffffffffffffffffffffffff1673ffffffffffffffffffffffffffffffffffffffff16815260200190815260200160002060008473ffffffffffffffffffffffffffffffffffffffff1673ffffffffffffffffffffffffffffffffffffffff168152602001908152602001600020819055508173ffffffffffffffffffffffffffffffffffffffff168373ffffffffffffffffffffffffffffffffffffffff167f8c5be1e5ebec7d5bd14f71427d1e84f3dd0314c0f7b2291e5b200ac8c7c3b92583604051611a6591906131ce565b60405180910390a3505050565b600073ffffffffffffffffffffffffffffffffffffffff168373ffffffffffffffffffffffffffffffffffffffff161415611ae2576040517f08c379a0000000000000000000000000000000000000000000000000000000008152600401611ad99061316e565b60405180910390fd5b600073ffffffffffffffffffffffffffffffffffffffff168273ffffffffffffffffffffffffffffffffffffffff161415611b52576040517f08c379a0000000000000000000000000000000000000000000000000000000008152600401611b499061306e565b60405180910390fd5b60008111611b95576040517f08c379a0000000000000000000000000000000000000000000000000000000008152600401611b8c9061314e565b60405180910390fd5b600460008473ffffffffffffffffffffffffffffffffffffffff1673ffffffffffffffffffffffffffffffffffffffff16815260200190815260200160002060009054906101000a900460ff168015611c385750600460008373ffffffffffffffffffffffffffffffffffffffff1673ffffffffffffffffffffffffffffffffffffffff16815260200190815260200160002060009054906101000a900460ff16155b15611c4d57611c488383836122f0565b611e84565b600460008473ffffffffffffffffffffffffffffffffffffffff1673ffffffffffffffffffffffffffffffffffffffff16815260200190815260200160002060009054906101000a900460ff16158015611cf05750600460008373ffffffffffffffffffffffffffffffffffffffff1673ffffffffffffffffffffffffffffffffffffffff16815260200190815260200160002060009054906101000a900460ff165b15611d0557611d00838383612543565b611e83565b600460008473ffffffffffffffffffffffffffffffffffffffff1673ffffffffffffffffffffffffffffffffffffffff16815260200190815260200160002060009054906101000a900460ff16158015611da95750600460008373ffffffffffffffffffffffffffffffffffffffff1673ffffffffffffffffffffffffffffffffffffffff16815260200190815260200160002060009054906101000a900460ff16155b15611dbe57611db9838383612796565b611e82565b600460008473ffffffffffffffffffffffffffffffffffffffff1673ffffffffffffffffffffffffffffffffffffffff16815260200190815260200160002060009054906101000a900460ff168015611e605750600460008373ffffffffffffffffffffffffffffffffffffffff1673ffffffffffffffffffffffffffffffffffffffff16815260200190815260200160002060009054906101000a900460ff165b15611e7557611e70838383612954565b611e81565b611e80838383612796565b5b5b5b5b505050565b6000838311158290611ed1576040517f08c379a0000000000000000000000000000000000000000000000000000000008152600401611ec8919061304c565b60405180910390fd5b5082840390509392505050565b60008183611eec9190613276565b905092915050565b600080600060065490506000662386f26fc10000905060005b60058054905081101561220c57826001600060058481548110611f59577f4e487b7100000000000000000000000000000000000000000000000000000000600052603260045260246000fd5b9060005260206000200160009054906101000a900473ffffffffffffffffffffffffffffffffffffffff1673ffffffffffffffffffffffffffffffffffffffff1673ffffffffffffffffffffffffffffffffffffffff16815260200190815260200160002054118061206d5750816002600060058481548110612005577f4e487b7100000000000000000000000000000000000000000000000000000000600052603260045260246000fd5b9060005260206000200160009054906101000a900473ffffffffffffffffffffffffffffffffffffffff1673ffffffffffffffffffffffffffffffffffffffff1673ffffffffffffffffffffffffffffffffffffffff16815260200190815260200160002054115b1561208957600654662386f26fc100009450945050505061224f565b61213f60016000600584815481106120ca577f4e487b7100000000000000000000000000000000000000000000000000000000600052603260045260246000fd5b9060005260206000200160009054906101000a900473ffffffffffffffffffffffffffffffffffffffff1673ffffffffffffffffffffffffffffffffffffffff1673ffffffffffffffffffffffffffffffffffffffff168152602001908152602001600020548461187b90919063ffffffff16565b92506121f76002600060058481548110612182577f4e487b7100000000000000000000000000000000000000000000000000000000600052603260045260246000fd5b9060005260206000200160009054906101000a900473ffffffffffffffffffffffffffffffffffffffff1673ffffffffffffffffffffffffffffffffffffffff1673ffffffffffffffffffffffffffffffffffffffff168152602001908152602001600020548361187b90919063ffffffff16565b91508080612204906133ef565b915050611f0d565b50612229662386f26fc10000600654611ede90919063ffffffff16565b82101561224657600654662386f26fc1000093509350505061224f565b81819350935050505b9091565b600080600061226c606485611ede90919063ffffffff16565b90506000612283828661187b90919063ffffffff16565b90508082935093505050915091565b6000806000806122ab8588612c3c90919063ffffffff16565b905060006122c28688612c3c90919063ffffffff16565b905060006122d9828461187b90919063ffffffff16565b905082818395509550955050505093509350939050565b600080600080600061230186611823565b9450945094509450945061235d86600260008b73ffffffffffffffffffffffffffffffffffffffff1673ffffffffffffffffffffffffffffffffffffffff1681526020019081526020016000205461187b90919063ffffffff16565b600260008a73ffffffffffffffffffffffffffffffffffffffff1673ffffffffffffffffffffffffffffffffffffffff168152602001908152602001600020819055506123f285600160008b73ffffffffffffffffffffffffffffffffffffffff1673ffffffffffffffffffffffffffffffffffffffff1681526020019081526020016000205461187b90919063ffffffff16565b600160008a73ffffffffffffffffffffffffffffffffffffffff1673ffffffffffffffffffffffffffffffffffffffff1681526020019081526020016000208190555061248784600160008a73ffffffffffffffffffffffffffffffffffffffff1673ffffffffffffffffffffffffffffffffffffffff1681526020019081526020016000205461189190919063ffffffff16565b600160008973ffffffffffffffffffffffffffffffffffffffff1673ffffffffffffffffffffffffffffffffffffffff168152602001908152602001600020819055506124d48382612c52565b8673ffffffffffffffffffffffffffffffffffffffff168873ffffffffffffffffffffffffffffffffffffffff167fddf252ad1be2c89b69c2b068fc378daa952ba7f163c4a11628f55a4df523b3ef8460405161253191906131ce565b60405180910390a35050505050505050565b600080600080600061255486611823565b945094509450945094506125b085600160008b73ffffffffffffffffffffffffffffffffffffffff1673ffffffffffffffffffffffffffffffffffffffff1681526020019081526020016000205461187b90919063ffffffff16565b600160008a73ffffffffffffffffffffffffffffffffffffffff1673ffffffffffffffffffffffffffffffffffffffff1681526020019081526020016000208190555061264582600260008a73ffffffffffffffffffffffffffffffffffffffff1673ffffffffffffffffffffffffffffffffffffffff1681526020019081526020016000205461189190919063ffffffff16565b600260008973ffffffffffffffffffffffffffffffffffffffff1673ffffffffffffffffffffffffffffffffffffffff168152602001908152602001600020819055506126da84600160008a73ffffffffffffffffffffffffffffffffffffffff1673ffffffffffffffffffffffffffffffffffffffff1681526020019081526020016000205461189190919063ffffffff16565b600160008973ffffffffffffffffffffffffffffffffffffffff1673ffffffffffffffffffffffffffffffffffffffff168152602001908152602001600020819055506127278382612c52565b8673ffffffffffffffffffffffffffffffffffffffff168873ffffffffffffffffffffffffffffffffffffffff167fddf252ad1be2c89b69c2b068fc378daa952ba7f163c4a11628f55a4df523b3ef8460405161278491906131ce565b60405180910390a35050505050505050565b60008060008060006127a786611823565b9450945094509450945061280385600160008b73ffffffffffffffffffffffffffffffffffffffff1673ffffffffffffffffffffffffffffffffffffffff1681526020019081526020016000205461187b90919063ffffffff16565b600160008a73ffffffffffffffffffffffffffffffffffffffff1673ffffffffffffffffffffffffffffffffffffffff1681526020019081526020016000208190555061289884600160008a73ffffffffffffffffffffffffffffffffffffffff1673ffffffffffffffffffffffffffffffffffffffff1681526020019081526020016000205461189190919063ffffffff16565b600160008973ffffffffffffffffffffffffffffffffffffffff1673ffffffffffffffffffffffffffffffffffffffff168152602001908152602001600020819055506128e58382612c52565b8673ffffffffffffffffffffffffffffffffffffffff168873ffffffffffffffffffffffffffffffffffffffff167fddf252ad1be2c89b69c2b068fc378daa952ba7f163c4a11628f55a4df523b3ef8460405161294291906131ce565b60405180910390a35050505050505050565b600080600080600061296586611823565b945094509450945094506129c186600260008b73ffffffffffffffffffffffffffffffffffffffff1673ffffffffffffffffffffffffffffffffffffffff1681526020019081526020016000205461187b90919063ffffffff16565b600260008a73ffffffffffffffffffffffffffffffffffffffff1673ffffffffffffffffffffffffffffffffffffffff16815260200190815260200160002081905550612a5685600160008b73ffffffffffffffffffffffffffffffffffffffff1673ffffffffffffffffffffffffffffffffffffffff1681526020019081526020016000205461187b90919063ffffffff16565b600160008a73ffffffffffffffffffffffffffffffffffffffff1673ffffffffffffffffffffffffffffffffffffffff16815260200190815260200160002081905550612aeb82600260008a73ffffffffffffffffffffffffffffffffffffffff1673ffffffffffffffffffffffffffffffffffffffff1681526020019081526020016000205461189190919063ffffffff16565b600260008973ffffffffffffffffffffffffffffffffffffffff1673ffffffffffffffffffffffffffffffffffffffff16815260200190815260200160002081905550612b8084600160008a73ffffffffffffffffffffffffffffffffffffffff1673ffffffffffffffffffffffffffffffffffffffff1681526020019081526020016000205461189190919063ffffffff16565b600160008973ffffffffffffffffffffffffffffffffffffffff1673ffffffffffffffffffffffffffffffffffffffff16815260200190815260200160002081905550612bcd8382612c52565b8673ffffffffffffffffffffffffffffffffffffffff168873ffffffffffffffffffffffffffffffffffffffff167fddf252ad1be2c89b69c2b068fc378daa952ba7f163c4a11628f55a4df523b3ef84604051612c2a91906131ce565b60405180910390a35050505050505050565b60008183612c4a91906132a7565b905092915050565b612c678260065461187b90919063ffffffff16565b600681905550612c828160075461189190919063ffffffff16565b6007819055505050565b600081359050612c9b816137fa565b92915050565b600081359050612cb081613811565b92915050565b600081359050612cc581613828565b92915050565b600060208284031215612cdd57600080fd5b6000612ceb84828501612c8c565b91505092915050565b60008060408385031215612d0757600080fd5b6000612d1585828601612c8c565b9250506020612d2685828601612c8c565b9150509250929050565b600080600060608486031215612d4557600080fd5b6000612d5386828701612c8c565b9350506020612d6486828701612c8c565b9250506040612d7586828701612cb6565b9150509250925092565b60008060408385031215612d9257600080fd5b6000612da085828601612c8c565b9250506020612db185828601612cb6565b9150509250929050565b600060208284031215612dcd57600080fd5b6000612ddb84828501612cb6565b91505092915050565b60008060408385031215612df757600080fd5b6000612e0585828601612cb6565b9250506020612e1685828601612ca1565b9150509250929050565b612e2981613335565b82525050565b612e3881613347565b82525050565b6000612e4982613204565b612e53818561320f565b9350612e6381856020860161338a565b612e6c816134f6565b840191505092915050565b6000612e8460238361320f565b9150612e8f82613507565b604082019050919050565b6000612ea7602a8361320f565b9150612eb282613556565b604082019050919050565b6000612eca60268361320f565b9150612ed5826135a5565b604082019050919050565b6000612eed60228361320f565b9150612ef8826135f4565b604082019050919050565b6000612f10601b8361320f565b9150612f1b82613643565b602082019050919050565b6000612f33601f8361320f565b9150612f3e8261366c565b602082019050919050565b6000612f5660208361320f565b9150612f6182613695565b602082019050919050565b6000612f7960298361320f565b9150612f84826136be565b604082019050919050565b6000612f9c60258361320f565b9150612fa78261370d565b604082019050919050565b6000612fbf60248361320f565b9150612fca8261375c565b604082019050919050565b6000612fe2602c8361320f565b9150612fed826137ab565b604082019050919050565b61300181613373565b82525050565b6130108161337d565b82525050565b600060208201905061302b6000830184612e20565b92915050565b60006020820190506130466000830184612e2f565b92915050565b600060208201905081810360008301526130668184612e3e565b905092915050565b6000602082019050818103600083015261308781612e77565b9050919050565b600060208201905081810360008301526130a781612e9a565b9050919050565b600060208201905081810360008301526130c781612ebd565b9050919050565b600060208201905081810360008301526130e781612ee0565b9050919050565b6000602082019050818103600083015261310781612f03565b9050919050565b6000602082019050818103600083015261312781612f26565b9050919050565b6000602082019050818103600083015261314781612f49565b9050919050565b6000602082019050818103600083015261316781612f6c565b9050919050565b6000602082019050818103600083015261318781612f8f565b9050919050565b600060208201905081810360008301526131a781612fb2565b9050919050565b600060208201905081810360008301526131c781612fd5565b9050919050565b60006020820190506131e36000830184612ff8565b92915050565b60006020820190506131fe6000830184613007565b92915050565b600081519050919050565b600082825260208201905092915050565b600061322b82613373565b915061323683613373565b9250827fffffffffffffffffffffffffffffffffffffffffffffffffffffffffffffffff0382111561326b5761326a613469565b5b828201905092915050565b600061328182613373565b915061328c83613373565b92508261329c5761329b613498565b5b828204905092915050565b60006132b282613373565b91506132bd83613373565b9250817fffffffffffffffffffffffffffffffffffffffffffffffffffffffffffffffff04831182151516156132f6576132f5613469565b5b828202905092915050565b600061330c82613373565b915061331783613373565b92508282101561332a57613329613469565b5b828203905092915050565b600061334082613353565b9050919050565b60008115159050919050565b600073ffffffffffffffffffffffffffffffffffffffff82169050919050565b6000819050919050565b600060ff82169050919050565b60005b838110156133a857808201518184015260208101905061338d565b838111156133b7576000848401525b50505050565b600060028204905060018216806133d557607f821691505b602082108114156133e9576133e86134c7565b5b50919050565b60006133fa82613373565b91507fffffffffffffffffffffffffffffffffffffffffffffffffffffffffffffffff82141561342d5761342c613469565b5b600182019050919050565b600061344382613373565b915061344e83613373565b92508261345e5761345d613498565b5b828206905092915050565b7f4e487b7100000000000000000000000000000000000000000000000000000000600052601160045260246000fd5b7f4e487b7100000000000000000000000000000000000000000000000000000000600052601260045260246000fd5b7f4e487b7100000000000000000000000000000000000000000000000000000000600052602260045260246000fd5b6000601f19601f8301169050919050565b7f45524332303a207472616e7366657220746f20746865207a65726f206164647260008201527f6573730000000000000000000000000000000000000000000000000000000000602082015250565b7f416d6f756e74206d757374206265206c657373207468616e20746f74616c207260008201527f65666c656374696f6e7300000000000000000000000000000000000000000000602082015250565b7f4f776e61626c653a206e6577206f776e657220697320746865207a65726f206160008201527f6464726573730000000000000000000000000000000000000000000000000000602082015250565b7f45524332303a20617070726f766520746f20746865207a65726f20616464726560008201527f7373000000000000000000000000000000000000000000000000000000000000602082015250565b7f4163636f756e7420697320616c7265616479206578636c756465640000000000600082015250565b7f416d6f756e74206d757374206265206c657373207468616e20737570706c7900600082015250565b7f4f776e61626c653a2063616c6c6572206973206e6f7420746865206f776e6572600082015250565b7f5472616e7366657220616d6f756e74206d75737420626520677265617465722060008201527f7468616e207a65726f0000000000000000000000000000000000000000000000602082015250565b7f45524332303a207472616e736665722066726f6d20746865207a65726f20616460008201527f6472657373000000000000000000000000000000000000000000000000000000602082015250565b7f45524332303a20617070726f76652066726f6d20746865207a65726f2061646460008201527f7265737300000000000000000000000000000000000000000000000000000000602082015250565b7f4578636c75646564206164647265737365732063616e6e6f742063616c6c207460008201527f6869732066756e6374696f6e0000000000000000000000000000000000000000602082015250565b61380381613335565b811461380e57600080fd5b50565b61381a81613347565b811461382557600080fd5b50565b61383181613373565b811461383c57600080fd5b5056fe45524332303a207472616e7366657220616d6f756e74206578636565647320616c6c6f77616e636545524332303a2064656372656173656420616c6c6f77616e63652062656c6f77207a65726fa26469706673582212206f1fd61fc6c7ff66f983136538b0f8a705b887abf38ff25f2298339c72985aff64736f6c63430008040033",
  "immutableReferences": {},
  "source": "/*\n * Copyright  2020 reflect.finance. ALL RIGHTS RESERVED.\n */\n\npragma solidity 0.8.4;\n\nimport '@openzeppelin/contracts/utils/Context.sol';\nimport '@openzeppelin/contracts/token/ERC20/ERC20.sol';\nimport '@openzeppelin/contracts/utils/math/SafeMath.sol';\nimport '@openzeppelin/contracts/utils/Address.sol';\nimport '@openzeppelin/contracts/access/Ownable.sol';\n\ncontract REFLECTCustom is Context, IERC20, Ownable {\n    using SafeMath for uint256;\n    using Address for address;\n\n    mapping(address => uint256) public _reflectionsOwned;\n    mapping(address => uint256) public _tokensOwned;\n    mapping(address => mapping(address => uint256)) private _allowances;\n\n    mapping(address => bool) private _isExcluded;\n    address[] private _excluded;\n\n    uint256 public constant MAX = ~uint256(0);\n    uint256 public constant MAXmod = MAX % _totalSupplyOfToken;\n    uint256 public constant _totalSupplyOfToken = 10 * 10**6 * 10**9;\n    uint256 public _totalReflections = (MAX - (MAX % _totalSupplyOfToken));\n    uint256 public _tokensFeeTotal;\n\n    string private _name = 'reflect.finance';\n    string private _symbol = 'RFI';\n    uint8 private _decimals = 9;\n\n    constructor() public {\n        _reflectionsOwned[_msgSender()] = _totalReflections;\n        emit Transfer(address(0), _msgSender(), _totalSupplyOfToken);\n    }\n\n    function name() public view returns (string memory) {\n        return _name;\n    }\n\n    function symbol() public view returns (string memory) {\n        return _symbol;\n    }\n\n    function decimals() public view returns (uint8) {\n        return _decimals;\n    }\n\n    function totalSupply() public view override returns (uint256) {\n        return _totalSupplyOfToken;\n    }\n\n    ////////////////////\n    ////////////////////\n    ////////////////////\n    ////////////////////\n    ////////////////////\n\n    function balanceOf(address account) public view override returns (uint256) {\n        if (_isExcluded[account]) return _tokensOwned[account];\n        return tokenFromReflection(_reflectionsOwned[account]);\n    }\n\n    function tokenFromReflection(uint256 reflectionAmount)\n        public\n        view\n        returns (uint256)\n    {\n        require(\n            reflectionAmount <= _totalReflections,\n            'Amount must be less than total reflections'\n        );\n\n        uint256 currentRate = _getRate();\n\n        return reflectionAmount.div(currentRate);\n    }\n\n    function _getRate() public view returns (uint256) {\n        (uint256 reflectionSupply, uint256 tokenSupply) = _getCurrentSupply();\n\n        return reflectionSupply.div(tokenSupply);\n    }\n\n    function _getCurrentSupply() private view returns (uint256, uint256) {\n        uint256 reflectionSupply = _totalReflections;\n        uint256 tokenSupply = _totalSupplyOfToken;\n\n        for (uint256 i = 0; i < _excluded.length; i++) {\n            if (\n                _reflectionsOwned[_excluded[i]] > reflectionSupply ||\n                _tokensOwned[_excluded[i]] > tokenSupply\n            ) {\n                return (_totalReflections, _totalSupplyOfToken);\n            }\n\n            reflectionSupply = reflectionSupply.sub(\n                _reflectionsOwned[_excluded[i]]\n            );\n            tokenSupply = tokenSupply.sub(_tokensOwned[_excluded[i]]);\n        }\n\n        if (reflectionSupply < _totalReflections.div(_totalSupplyOfToken)) {\n            return (_totalReflections, _totalSupplyOfToken);\n        }\n\n        return (reflectionSupply, tokenSupply);\n    }\n\n    ////////////////////\n    ////////////////////\n    ////////////////////\n    ////////////////////\n    ////////////////////\n\n    function transfer(address recipient, uint256 amount)\n        public\n        override\n        returns (bool)\n    {\n        _transfer(_msgSender(), recipient, amount);\n        return true;\n    }\n\n    function _transfer(\n        address sender,\n        address recipient,\n        uint256 amount\n    ) private {\n        require(sender != address(0), 'ERC20: transfer from the zero address');\n        require(recipient != address(0), 'ERC20: transfer to the zero address');\n        require(amount > 0, 'Transfer amount must be greater than zero');\n        if (_isExcluded[sender] && !_isExcluded[recipient]) {\n            _transferFromExcluded(sender, recipient, amount);\n        } else if (!_isExcluded[sender] && _isExcluded[recipient]) {\n            _transferToExcluded(sender, recipient, amount);\n        } else if (!_isExcluded[sender] && !_isExcluded[recipient]) {\n            _transferStandard(sender, recipient, amount);\n        } else if (_isExcluded[sender] && _isExcluded[recipient]) {\n            _transferBothExcluded(sender, recipient, amount);\n        } else {\n            _transferStandard(sender, recipient, amount);\n        }\n    }\n\n    function _transferStandard(\n        address sender,\n        address recipient,\n        uint256 tAmount\n    ) private {\n        (\n            uint256 rAmount,\n            uint256 rTransferAmount,\n            uint256 rFee,\n            uint256 tTransferAmount,\n            uint256 tFee\n        ) = _getValues(tAmount);\n        _reflectionsOwned[sender] = _reflectionsOwned[sender].sub(rAmount);\n        _reflectionsOwned[recipient] = _reflectionsOwned[recipient].add(\n            rTransferAmount\n        );\n        _reflectFee(rFee, tFee);\n        emit Transfer(sender, recipient, tTransferAmount);\n    }\n\n    function _getValues(uint256 tAmount)\n        private\n        view\n        returns (\n            uint256,\n            uint256,\n            uint256,\n            uint256,\n            uint256\n        )\n    {\n        (uint256 tTransferAmount, uint256 tFee) = _getTValues(tAmount);\n        uint256 currentRate = _getRate();\n        (uint256 rAmount, uint256 rTransferAmount, uint256 rFee) =\n            _getRValues(tAmount, tFee, currentRate);\n        return (rAmount, rTransferAmount, rFee, tTransferAmount, tFee);\n    }\n\n    function _getTValues(uint256 tAmount)\n        private\n        pure\n        returns (uint256, uint256)\n    {\n        uint256 tFee = tAmount.div(100);\n        uint256 tTransferAmount = tAmount.sub(tFee);\n        return (tTransferAmount, tFee);\n    }\n\n    function _getRValues(\n        uint256 tAmount,\n        uint256 tFee,\n        uint256 currentRate\n    )\n        private\n        pure\n        returns (\n            uint256,\n            uint256,\n            uint256\n        )\n    {\n        uint256 rAmount = tAmount.mul(currentRate);\n        uint256 rFee = tFee.mul(currentRate);\n        uint256 rTransferAmount = rAmount.sub(rFee);\n        return (rAmount, rTransferAmount, rFee);\n    }\n\n    function _reflectFee(uint256 rFee, uint256 tFee) private {\n        _totalReflections = _totalReflections.sub(rFee);\n        _tokensFeeTotal = _tokensFeeTotal.add(tFee);\n    }\n\n    function _transferToExcluded(\n        address sender,\n        address recipient,\n        uint256 tAmount\n    ) private {\n        (\n            uint256 rAmount,\n            uint256 rTransferAmount,\n            uint256 rFee,\n            uint256 tTransferAmount,\n            uint256 tFee\n        ) = _getValues(tAmount);\n        _reflectionsOwned[sender] = _reflectionsOwned[sender].sub(rAmount);\n        _tokensOwned[recipient] = _tokensOwned[recipient].add(tTransferAmount);\n        _reflectionsOwned[recipient] = _reflectionsOwned[recipient].add(\n            rTransferAmount\n        );\n        _reflectFee(rFee, tFee);\n        emit Transfer(sender, recipient, tTransferAmount);\n    }\n\n    function _transferFromExcluded(\n        address sender,\n        address recipient,\n        uint256 tAmount\n    ) private {\n        (\n            uint256 rAmount,\n            uint256 rTransferAmount,\n            uint256 rFee,\n            uint256 tTransferAmount,\n            uint256 tFee\n        ) = _getValues(tAmount);\n        _tokensOwned[sender] = _tokensOwned[sender].sub(tAmount);\n        _reflectionsOwned[sender] = _reflectionsOwned[sender].sub(rAmount);\n        _reflectionsOwned[recipient] = _reflectionsOwned[recipient].add(\n            rTransferAmount\n        );\n        _reflectFee(rFee, tFee);\n        emit Transfer(sender, recipient, tTransferAmount);\n    }\n\n    function _transferBothExcluded(\n        address sender,\n        address recipient,\n        uint256 tAmount\n    ) private {\n        (\n            uint256 rAmount,\n            uint256 rTransferAmount,\n            uint256 rFee,\n            uint256 tTransferAmount,\n            uint256 tFee\n        ) = _getValues(tAmount);\n        _tokensOwned[sender] = _tokensOwned[sender].sub(tAmount);\n        _reflectionsOwned[sender] = _reflectionsOwned[sender].sub(rAmount);\n        _tokensOwned[recipient] = _tokensOwned[recipient].add(tTransferAmount);\n        _reflectionsOwned[recipient] = _reflectionsOwned[recipient].add(\n            rTransferAmount\n        );\n        _reflectFee(rFee, tFee);\n        emit Transfer(sender, recipient, tTransferAmount);\n    }\n\n    ////////////////////\n    ////////////////////\n    ////////////////////\n    ////////////////////\n    ////////////////////\n\n    function allowance(address owner, address spender)\n        public\n        view\n        override\n        returns (uint256)\n    {\n        return _allowances[owner][spender];\n    }\n\n    function approve(address spender, uint256 amount)\n        public\n        override\n        returns (bool)\n    {\n        _approve(_msgSender(), spender, amount);\n        return true;\n    }\n\n    function transferFrom(\n        address sender,\n        address recipient,\n        uint256 amount\n    ) public override returns (bool) {\n        _transfer(sender, recipient, amount);\n        _approve(\n            sender,\n            _msgSender(),\n            _allowances[sender][_msgSender()].sub(\n                amount,\n                'ERC20: transfer amount exceeds allowance'\n            )\n        );\n        return true;\n    }\n\n    function increaseAllowance(address spender, uint256 addedValue)\n        public\n        virtual\n        returns (bool)\n    {\n        _approve(\n            _msgSender(),\n            spender,\n            _allowances[_msgSender()][spender].add(addedValue)\n        );\n        return true;\n    }\n\n    function decreaseAllowance(address spender, uint256 subtractedValue)\n        public\n        virtual\n        returns (bool)\n    {\n        _approve(\n            _msgSender(),\n            spender,\n            _allowances[_msgSender()][spender].sub(\n                subtractedValue,\n                'ERC20: decreased allowance below zero'\n            )\n        );\n        return true;\n    }\n\n    function isExcluded(address account) public view returns (bool) {\n        return _isExcluded[account];\n    }\n\n    function totalFees() public view returns (uint256) {\n        return _tokensFeeTotal;\n    }\n\n    function reflect(uint256 tAmount) public {\n        address sender = _msgSender();\n        require(\n            !_isExcluded[sender],\n            'Excluded addresses cannot call this function'\n        );\n        (uint256 rAmount, , , , ) = _getValues(tAmount);\n        _reflectionsOwned[sender] = _reflectionsOwned[sender].sub(rAmount);\n        _totalReflections = _totalReflections.sub(rAmount);\n        _tokensFeeTotal = _tokensFeeTotal.add(tAmount);\n    }\n\n    function reflectionFromToken(uint256 tAmount, bool deductTransferFee)\n        public\n        view\n        returns (uint256)\n    {\n        require(\n            tAmount <= _totalSupplyOfToken,\n            'Amount must be less than supply'\n        );\n        if (!deductTransferFee) {\n            (uint256 rAmount, , , , ) = _getValues(tAmount);\n            return rAmount;\n        } else {\n            (, uint256 rTransferAmount, , , ) = _getValues(tAmount);\n            return rTransferAmount;\n        }\n    }\n\n    function excludeAccount(address account) external onlyOwner() {\n        require(!_isExcluded[account], 'Account is already excluded');\n        if (_reflectionsOwned[account] > 0) {\n            _tokensOwned[account] = tokenFromReflection(\n                _reflectionsOwned[account]\n            );\n        }\n        _isExcluded[account] = true;\n        _excluded.push(account);\n    }\n\n    function includeAccount(address account) external onlyOwner() {\n        require(_isExcluded[account], 'Account is already excluded');\n        for (uint256 i = 0; i < _excluded.length; i++) {\n            if (_excluded[i] == account) {\n                _excluded[i] = _excluded[_excluded.length - 1];\n                _tokensOwned[account] = 0;\n                _isExcluded[account] = false;\n                _excluded.pop();\n                break;\n            }\n        }\n    }\n\n    function _approve(\n        address owner,\n        address spender,\n        uint256 amount\n    ) private {\n        require(owner != address(0), 'ERC20: approve from the zero address');\n        require(spender != address(0), 'ERC20: approve to the zero address');\n\n        _allowances[owner][spender] = amount;\n        emit Approval(owner, spender, amount);\n    }\n}\n",
  "sourcePath": "/Users/maximedupre/Desktop/programming/maximedupre/ARK/contracts/REFLECT-custom.sol",
  "compiler": {
    "name": "solc",
    "version": "0.8.4+commit.c7e474f2.Emscripten.clang"
  },
  "schemaVersion": "3.4.0",
  "updatedAt": "2021-05-01T20:49:08.681Z",
  "networkType": "ethereum",
  "devdoc": {
    "kind": "dev",
    "methods": {
      "allowance(address,address)": {
        "details": "Returns the remaining number of tokens that `spender` will be allowed to spend on behalf of `owner` through {transferFrom}. This is zero by default. This value changes when {approve} or {transferFrom} are called."
      },
      "approve(address,uint256)": {
        "details": "Sets `amount` as the allowance of `spender` over the caller's tokens. Returns a boolean value indicating whether the operation succeeded. IMPORTANT: Beware that changing an allowance with this method brings the risk that someone may use both the old and the new allowance by unfortunate transaction ordering. One possible solution to mitigate this race condition is to first reduce the spender's allowance to 0 and set the desired value afterwards: https://github.com/ethereum/EIPs/issues/20#issuecomment-263524729 Emits an {Approval} event."
      },
      "balanceOf(address)": {
        "details": "Returns the amount of tokens owned by `account`."
      },
      "owner()": {
        "details": "Returns the address of the current owner."
      },
      "renounceOwnership()": {
        "details": "Leaves the contract without owner. It will not be possible to call `onlyOwner` functions anymore. Can only be called by the current owner. NOTE: Renouncing ownership will leave the contract without an owner, thereby removing any functionality that is only available to the owner."
      },
      "totalSupply()": {
        "details": "Returns the amount of tokens in existence."
      },
      "transfer(address,uint256)": {
        "details": "Moves `amount` tokens from the caller's account to `recipient`. Returns a boolean value indicating whether the operation succeeded. Emits a {Transfer} event."
      },
      "transferFrom(address,address,uint256)": {
        "details": "Moves `amount` tokens from `sender` to `recipient` using the allowance mechanism. `amount` is then deducted from the caller's allowance. Returns a boolean value indicating whether the operation succeeded. Emits a {Transfer} event."
      },
      "transferOwnership(address)": {
        "details": "Transfers ownership of the contract to a new account (`newOwner`). Can only be called by the current owner."
      }
    },
    "version": 1
  },
  "userdoc": {
    "kind": "user",
    "methods": {},
    "version": 1
  }
}